:100000000C9414010C943C010C943C010C943C01A4
:100010000C943C010C943C010C943C010C943C016C
:100020000C943C010C943C010C94CB0A0C946D0B89
:100030000C94840A0C943C010C943C010C943C01FB
:100040000C94730C0C943C010C94E8070C94C207BC
:100050000C943C010C943C010C943C010C943C012C
:100060000C941A080C943C0150432C3435346435FC
:100070003332643533373436353735363537323702
:1000800035366536373264343334382C31382C32D7
:10009000300050532C3435346435333264353336C4
:1000A00035373237363639363336353264343234D2
:1000B0006334353331000909536574204261756436
:1000C000726174653A20000909536574206E657782
:1000D00020707269766174652073657276696365F4
:1000E0002076616C75653A20000909536574206EAD
:1000F00065772070726976617465207365727669C0
:1001000063653A20000909436C6561722070726969
:10011000766174652073657276696365733A000968
:1001200009456E61626C6520707269766174652044
:1001300073657276696365733A20000909536574C3
:10014000207065726970686572616C206D6F64659E
:100150003A20005365742070657269706865726139
:100160006C206D6F6465204170706C6520426C7509
:1001700065746F6F7468204163636573736F727920
:100180002044657369676E2047756964656C696EA4
:100190006573203A20000909536574204E616D652E
:1001A0003A2000090956657273696F6E3A2000099A
:1001B000095265626F6F743F3A200000000000240E
:1001C0000027002A0000000000250028002B000462
:1001D00004040404040404020202020202030303EE
:1001E00003030301020408102040800102040810E8
:1001F0002001020408102000000008000201000095
:10020000030407000000000000000092006800AF37
:1002100001A301960153013B011F010501E900C73C
:1002200000B600005E17271311241FBECFEFD8E0E1
:10023000DEBFCDBF26E0AEEAB3E001C01D92A23022
:10024000B207E1F713E0A0E0B1E0ECE8F9E302C0A7
:1002500005900D92AE3AB107D9F711E0C3E1D1E0B4
:1002600004C02197FE010E94881AC231D107C9F744
:100270000E9455130C94B91C0C9400000895CF9261
:10028000DF92EF92FF920F931F93CF93DF936C0156
:100290007A018B01C0E0D0E0CE15DF0589F0D801EE
:1002A0006D918D01D601ED91FC910190F081E02DD1
:1002B000C6010995892B11F47E0102C02196ECCF6D
:1002C000C701DF91CF911F910F91FF90EF90DF90C9
:1002D000CF900895FC01538D448D252F30E0842F5D
:1002E00090E0821B930B541710F0CF96089501975E
:1002F0000895FC01918D828D981761F0828DDF0148
:10030000A80FB11D5D968C91928D9F5F9F73928F08
:1003100090E008958FEF9FEF0895FC01918D828DFD
:10032000981731F0828DE80FF11D858D90E00895CA
:100330008FEF9FEF0895FC01918D228D892F90E022
:10034000805C9F4F821B91098F73992708958BEFD3
:1003500094E00E949B0121E0892B09F420E0822F88
:100360000895FC01848DDF01A80FB11DA35ABF4F72
:100370002C91848D90E001968F739927848FA689A4
:10038000B7892C93A089B1898C9180648C93938DCB
:10039000848D981306C00288F389E02D80818F7DBB
:1003A00080830895EF92FF920F931F93CF93DF9373
:1003B000EC0181E0888F9B8D8C8D981305C0E889B6
:1003C000F989808185FD24C0F62E0B8D10E00F5F2A
:1003D0001F4F0F731127E02E8C8DE8120CC00FB643
:1003E00007FCFACFE889F989808185FFF5CFCE0136
:1003F0000E94B101F1CF8B8DFE01E80FF11DE35A90
:10040000FF4FF0820B8FEA89FB898081806207C0F1
:10041000EE89FF896083E889F9898081806480831F
:1004200081E090E0DF91CF911F910F91FF90EF90CD
:100430000895CF93DF93EC01888D8823C9F0EA8972
:10044000FB89808185FD05C0A889B9898C9186FDCD
:100450000FC00FB607FCF5CF808185FFF2CFA889CA
:10046000B9898C9185FFEDCFCE010E94B101E7CF14
:10047000DF91CF91089580E090E0892B29F00E94D0
:10048000A70181110C9400000895089581E090E087
:100490003091F1042091F004321710F480E090E0E4
:1004A00091958195910908958091F1049091F004BE
:1004B000891730F48F5F8093F10480E090E0089515
:1004C0008FEF9FEF08958091F00490E02091F10468
:1004D000821B9109089585ED8093BC008091BC003A
:1004E00084FDFCCF1092ED04089540918104262FE5
:1004F00030E0240F311D21323105DCF42091ED0470
:100500002430C9F4FC0180E090E0861758F4309163
:1005100081042191DC01A15ABB4FA30FB11D2C9383
:100520000196F3CF80918104680F6093810480E08D
:10053000089581E0089582E00895CF92DF92EF92CE
:10054000FF920F931F93CF93DF937C01262F972F5A
:100550008A018091EA04882391F0C62FD72F6E017B
:10056000C40ED51ECC15DD0571F06991D701ED9152
:10057000FC910190F081E02DC7010995F3CF642F24
:10058000822F0E947502C801DF91CF911F910F91B8
:10059000FF90EF90DF90CF900895CF93DF931F925D
:1005A000CDB7DEB769832091EA042223D1F02091F0
:1005B000EE04203240F021E030E0FC01338322835E
:1005C00080E090E015C08091EF04E82FF0E0E65362
:1005D000FB4F998190838F5F8093EF048093EE04AB
:1005E00005C061E0CE0101960E94750281E090E0B5
:1005F0000F90DF91CF910895EF92FF920F931F9389
:10060000CF93DF937C01C0E0D0E000E010E0F70181
:1006100086819781C817D907BCF49E01220F331F2A
:10062000D7011296ED91FC911397E20FF31F808191
:100630009181DC01ED91FC91008CF18DE02D09950B
:10064000080F191F2196E3CFC801DF91CF911F91A9
:100650000F91FF90EF900895FC01268137818481EE
:100660009581281739076CF4C901880F991FA28159
:10067000B381A80FB91F6D937C932F5F3F4F3783D2
:1006800026830895CF93DF93EC01CB012FEF289FB2
:10069000B001299F700D1124072E000C880B990BB7
:1006A0000E9476182AE037ED43E25CE30E94B1181D
:1006B00020E030E040E05FE30E94C4190E94301A5D
:1006C0007E876D87DF91CF910895CF93DF93EC0103
:1006D000CB012FEF289FB001299F700D1124072E09
:1006E000000C880B990B0E9476182AE037ED43E244
:1006F0005CE30E94B11820E030E040E05FE30E943C
:10070000C4190E94301A7C876B87DF91CF910895BE
:10071000FC01818592850895FC01728761870895A7
:10072000FC01838194810895FC0182810895509198
:100730005E0440915D04852F90E0242F30E0541733
:1007400010F4805B9F4F821B930B089580915E0491
:10075000E0915D048E1731F0F0E0E35FFB4F8081A4
:1007600090E008958FEF9FEF089580915E0490913F
:100770005D04891769F09F5F903508F090E0E92FDC
:10078000F0E0E35FFB4F808190935D0490E008957B
:100790008FEF9FEF0895809103048111FCCF08959E
:1007A000809100048F5F843408F080E09091FF0313
:1007B0009817E1F32FB7F89490910304992341F02F
:1007C000E82FF0E0E155FC4F6083809300041DC0EA
:1007D00081E080930304609302041092010482E09C
:1007E00086BB80916F00826080936F008091800053
:1007F0008F73806880938000809184009091850041
:10080000409690938900809388002FBF81E090E00C
:100810000895CF93DF931F92CDB7DEB781E0809329
:10082000EA048CE28093AE031092EF041092EE047F
:1008300088E995E049830E94CD024981642F88E9C7
:1008400095E00E94CD028091EE04813208F045C00F
:100850009091ED049111FCCF92E09093ED0491E022
:100860009093EC049FEF9093A6041092C804809399
:10087000C704AAECB4E027EA34E0F9019E2F921BEA
:10088000981718F49D919193F9CF1092C904809113
:10089000C90488658093C9048091EB04813061F4B8
:1008A0001092EB048091C9048093BB008091BC003E
:1008B00083FDF8CF85EC01C085EE8093BC0080916C
:1008C000ED048230E1F38091A6048F3F31F08091F6
:1008D000A604803211F08091A6041092EF041092C9
:1008E000EE041092EA040F90DF91CF9108950F93D8
:1008F0001F93CF93DF93EC019B010D851E858B85A4
:100900009C85801B910B829FB001839F700D929FED
:10091000700D1124072E000C880B990B0E9476187D
:100920002AE037ED43E25CE30E94B11820E030E0BA
:1009300040E05FE30E94C4190E94301A600F711FEB
:100940006F3F710531F02CF08FEF90E09C838B832B
:1009500007C077FD03C07C836B8302C01C821B82AF
:100960008B819C814FEF50E0481B590B69898F8523
:100970009889DF91CF911F910F910C9409040895EC
:1009800080E090E00895CF92DF92EF92FF92CF93B4
:10099000DF93FC01C580D680E780F084C114D104C8
:1009A000E104F10441F0EC010E941B136C157D057C
:1009B0008E059F0518F480E090E009C0E881F98178
:1009C0000680F781E02DCE01099581E090E0DF916E
:1009D000CF91FF90EF90DF90CF9008950F931F93EA
:1009E000CF93DF93EC010E941B1349855A858A013E
:1009F000550F220B330BDC01CB01800F911FA21F7F
:100A0000B31F8D839E83AF83B887DF91CF911F91F2
:100A10000F9108950C94231B0C94231B0C94231BFF
:100A20002F923F924F925F926F927F928F929F92FE
:100A3000AF92BF92CF92DF92EF92FF920F931F93EC
:100A4000CF93DF93CDB7DEB72C970FB6F894DEBF08
:100A50000FBECDBF1C017B014A01290140E050E0DF
:100A60006BE5C7010E94EF0C5C016DE5C7010E94B8
:100A7000BD0C6C0135018FEF681A780AA3016CE296
:100A8000C7010E94EF0C8C01A816B9060CF059C0E2
:100A90008C159D050CF055C0AB20A09409F451C0F5
:100AA000FFEFCF16DF0609F44CC00F3F8FEF18079A
:100AB00009F447C09801A301B701CE0101960E9435
:100AC000070E89819A81009719F00E94FE1703C0D2
:100AD00060E070E0CB01F40171836083A8014F5F97
:100AE0005F4F9601B701CE0107960E94070EBE0127
:100AF000695F7F4FCE0101960E944A0DCE01079695
:100B00000E94ED0D89819A81009719F00E94FE17CD
:100B100003C060E070E0CB01F20171836083F401F7
:100B20008081918197FD07C011E0F1012681378115
:100B3000821793070CF010E0CE0101960E94ED0D94
:100B400001C010E0812F2C960FB6F894DEBF0FBEC7
:100B5000CDBFDF91CF911F910F91FF90EF90DF906C
:100B6000CF90BF90AF909F908F907F906F905F904D
:100B70004F903F902F900895CF93DF93EC0161E069
:100B80008B890E94A30E61E08C890E94A30E81E0F4
:100B90008A8361E08D89DF91CF910C94A30ECF936E
:100BA000DF93EC014FEF69898F8598890E940904D2
:100BB00062E370E080E090E00E942B0F60E08D899E
:100BC0000E94A30E60E08C890E94A30E60E08B89D6
:100BD0000E94A30E1A821D821E821F821886DF9138
:100BE000CF9108950F931F93CF93DF93EC010E9451
:100BF0001B13688779878A879B87E881F98102843C
:100C0000F385E02DCE01099597FF17C00E941B13B5
:100C1000088519852A853B85DC01CB01801B910B5A
:100C2000A20BB30B0C811D812E813F818017910790
:100C3000A207B30710F38FEF9FEFDF91CF911F91C2
:100C40000F910895DC01ED91FC91DB0114964D911B
:100C50005C9115976D917C910280F381E02D099450
:100C60006115710579F0FB0101900020E9F73197DA
:100C7000AF01461B570BDC01ED91FC910280F38123
:100C8000E02D099480E090E0089560E871E00C9414
:100C900030060F931F93CF93DF93EC010E94300631
:100CA0008C01CE010E944506800F911FDF91CF91EC
:100CB0001F910F910895EF92FF920F931F93CF937F
:100CC000DF9300D000D01F92CDB7DEB78C017B013F
:100CD00063E871E08BEF94E00E94490662E070E007
:100CE000C7010E940B0D282F8FEF9FEF9C838B83F2
:100CF0009A83898361E070E0C7012D830E940B0D08
:100D00002D81833419F08D34A1F066C0243509F0AB
:100D100063C0D801ED91FC910684F785E02D9E011A
:100D20002F5F3F4FAE014D5F5F4FB701C80109957F
:100D300053C0213441F5D801ED91FC910684F7852B
:100D4000E02D9E012F5F3F4FAE014D5F5F4FB7011A
:100D5000C8010995882309F43FC0EB81FC81EE0F9F
:100D6000FF1FD80112968D919C911397E80FF91FE0
:100D700080819181DC01ED91FC9169817A81048807
:100D8000F589E02D28C0293439F5D801ED91FC9181
:100D90000684F785E02D9E012F5F3F4FAE014D5F2A
:100DA0005F4FB701C80109958823B1F0EB81FC8141
:100DB000EE0FFF1FD80112968D919C911397E80FAB
:100DC000F91F80819181DC01ED91FC9169817A812B
:100DD0000688F789E02D09950F900F900F900F90DE
:100DE0000F90DF91CF911F910F91FF90EF90089599
:100DF000AF92BF92CF92DF92EF92FF920F931F9329
:100E0000CF93DF9300D000D000D0CDB7DEB76B0119
:100E10007A0166E971E08BEF94E00E944906870150
:100E20000F5F1F4FAA24AA94BA2CF60184819581E2
:100E300008171907ACF5B801C6010E940B0D8053C5
:100E40008A3070F58FEFE816F80609F478010F5F25
:100E50001F4FE016F106ECF417FD1BC0F7FC19C09C
:100E60009801A7014F5F5F4FB601CE0101960E9426
:100E7000070E89819A81009719F00E94FE1703C01E
:100E800060E070E0CB015B01CE0101960E94ED0DA8
:100E9000CCCF65EB71E08BEF94E00E944906C5CFA3
:100EA000C50126960FB6F894DEBF0FBECDBFDF9109
:100EB000CF911F910F91FF90EF90DF90CF90BF9057
:100EC000AF9008950F931F93CF93DF93EC010E948F
:100ED00022068C01CE010E944506800F911FDF91F2
:100EE000CF911F910F9108950F931F93CF93DF938D
:100EF0008C01EB016BEF71E08BEF94E00E944906EF
:100F0000BE018BEF94E00E9422068C819D81892B8B
:100F1000A1F140E050E067E4CE010E94EF0C0196A1
:100F200039F0D801ED91FC910284F385E02D0DC0DC
:100F300060E070E0CE010E940B0D8F3469F4D8019F
:100F4000ED91FC910484F585E02DBE01C801DF918F
:100F5000CF911F910F9109948AE192E00E949E0E19
:100F6000BE018BEF94E00E9462078BEF94E0DF916B
:100F7000CF911F910F910C941902DF91CF911F9186
:100F80000F9108951F920F920FB60F9211242F9375
:100F90003F934F935F936F937F938F939F93AF9301
:100FA000BF93EF93FF938BEF94E00E94B101FF9109
:100FB000EF91BF91AF919F918F917F916F915F91D1
:100FC0004F913F912F910F900FBE0F901F9018954A
:100FD0001F920F920FB60F9211242F938F939F930E
:100FE000EF93FF93E0910B05F0910C058081E09168
:100FF0001105F091120582FD12C0908180911405B7
:101000008F5F8F7320911505821751F0E0911405C1
:10101000F0E0E550FB4F958F8093140501C080816F
:10102000FF91EF919F918F912F910F900FBE0F9095
:101030001F9018951F920F920FB60F9211242F93A5
:101040003F934F935F936F937F938F939F93AF9350
:10105000BF93EF93FF938091B900887F803609F4A6
:101060009CC068F5883209F45BC090F4803109F4C3
:1010700054C038F4882309F4F6C0883009F44DC010
:10108000F6C0883109F44CC0803209F45DC0EFC06D
:10109000803409F468C048F4803309F455C08833BB
:1010A00009F0E5C08093A604D8C0803509F44FC08C
:1010B000883509F45DC0883409F0D9C0D6C08839B4
:1010C00009F4C7C0A8F4883709F467C038F4883633
:1010D00009F463C0803709F460C0C9C0883809F4D6
:1010E000B8C0803909F45FC0803809F0C0C05BC067
:1010F000803B09F486C038F4803A09F466C0883A27
:1011000009F47FC0B4C0803C09F4A7C0883C09F44E
:10111000A4C0883B09F48AC0AAC08091C90410C049
:101120009091C8048091C704981770F5E091C804A5
:1011300081E08E0F8093C804F0E0E955FB4F808179
:101140008093BB0085EC86C08093A6048EC0E0919E
:10115000C80481E08E0F8093C8048091BB00F0E04A
:10116000E955FB4F80839091C8048091C7046EC0FD
:10117000E091C80481E08E0F8093C8048091BB0089
:10118000F0E0E955FB4F80838091EC0481116DC044
:1011900081E08093EB0484EA61C083E08093ED04F6
:1011A0001092A504CFCF8091A504803208F051C0E1
:1011B000E091A50481E08E0F8093A5048091BB008F
:1011C000F0E0EB57FB4F8083BDCF85EC8093BC00F4
:1011D0001092ED048091A504803230F4E091A504D2
:1011E000F0E0EB57FB4F10826091A50470E0E091B6
:1011F0008304F091840485E894E009951092A50495
:1012000036C084E08093ED04109282041092810431
:10121000E0917F04F091800409958091810481110F
:1012200005C081E08093810410925F04E091820404
:1012300081E08E0F80938204F0E0E15AFB4F8081C1
:101240008093BB009091820480918104981708F4E8
:1012500079CF85E88093BC000AC085EC8093BC0000
:101260001092ED0404C01092A6040E946B02FF913C
:10127000EF91BF91AF919F918F917F916F915F910E
:101280004F913F912F910F900FBE0F901F90189587
:1012900008950F931F93CF93DF938C01C0E0D0E0AC
:1012A000F80186819781C817D907ACF49E01220FF7
:1012B000331FD8011296ED91FC911397E20FF31FA3
:1012C00080819181DC01ED91FC910680F781E02D18
:1012D00009952196E5CFDF91CF911F910F91089548
:1012E000EF92FF920F931F93CF93DF93EC017B015B
:1012F0006CE272E08BEF94E00E944906D7011496ED
:101300008D919C911597892B09F496C040E050E08F
:1013100063E4C7010E94EF0CAC01019651F0E88133
:10132000F9810088F189E02DB701CE0109958C0182
:1013300002C00FEF1FEF40E050E064E5C7010E94DC
:10134000EF0CAC01019601F1E881F9810088F18987
:10135000E02DB701CE010995EA81FB819801220FAA
:10136000331FE20FF31FA081B181ED91FC91119722
:10137000BC01693883E1780714F068E873E10684FA
:10138000F785E02DCD01099540E050E069E4C70103
:101390000E94EF0CAC010196E1F0E881F981008830
:1013A000F189E02DB701CE010995EA81FB81980111
:1013B000220F331FE20FF31FA081B181ED91FC9149
:1013C0001197BC01615071090284F385E02DCD01B4
:1013D000099517FD28C08E819F81081719071CF5F4
:1013E000000F111FEA81FB81E00FF11F80819181C5
:1013F000DC01ED91FC910480F581E02D09958A8155
:101400009B81FC01E00FF11F80819181DC01ED9156
:10141000FC910288F389E02DDF91CF911F910F910C
:10142000FF90EF900994CE01DF91CF911F910F9122
:10143000FF90EF900C94490985E492E0DF91CF9101
:101440001F910F91FF90EF900C949E0E2CE431E0D1
:10145000FC0131832083828193810C94231BCF93E1
:10146000DF93EC010E94260ACE01DF91CF910C940C
:10147000231B0895EF92FF920F931F93CF93DF9357
:10148000FC01D62FF42EC22F8EE291E0918380834F
:1014900014821382128287ED90E09487838787E31A
:1014A00090E096878587638B448B258B81E090E065
:1014B000A0E0B0E085839683A783B0879287818779
:1014C000108B07878E2D90E0928B818B61E08D2FA2
:1014D0000E94EF0E61E08F2D0E94EF0E61E08C2FD5
:1014E0000E94EF0E60E08F2D0E94A30E60E08D2F12
:1014F0000E94A30E60E08C2FDF91CF911F910F917E
:10150000FF90EF900C94A30E1F920F920FB60F92C4
:1015100011242F938F939F93EF93FF9380916F00EC
:101520008B7F80936F00809181008F7B80938100FF
:1015300080910C0420910B04205890910A0489306A
:1015400020F49695922B8F5FFACF90930A048091A6
:101550005E048F5F803508F080E020915D04821783
:1015600039F0E82FF0E0E35FFB4F908380935E0457
:1015700010920C04809181008F7B809381001092E7
:101580000B04FF91EF919F918F912F910F900FBEC0
:101590000F901F9018951F920F920FB60F92112463
:1015A0002F933F934F935F936F937F938F939F936B
:1015B000EF93FF93809186009091870040910B04F8
:1015C00020918100442331F02F7B209381001092E1
:1015D0000B0406C020642093810020E820930B04B4
:1015E00030910C04311125C0411168C020910804CC
:1015F00030910904280F391F30938B0020938A0003
:1016000024E026BB20916F00246020936F0020917E
:10161000060430910704820F931F36952795820F99
:10162000931F909305048093040481E080930C043D
:1016300045C04091040450910504E0910B042091B1
:101640000A046091060470910704841B950B97FDB2
:101650002DC026952E2B460F571F3F5F861B970BDD
:101660003930A8F320930A0480916F008B7F809318
:101670006F0080915E048F5F803508F080E090916C
:101680005D04891749F0E82FF0E090910A04E35FC8
:10169000FB4F908380935E04809181008F7B8093C9
:1016A000810010920B0410920C0408C020930A04CD
:1016B000509305044093040430930C04FF91EF9180
:1016C0009F918F917F916F915F914F913F912F915A
:1016D0000F900FBE0F901F9018951F920F920FB68C
:1016E0000F9211242F933F934F935F936F937F93A8
:1016F0008F939F93EF93FF932091030440910204F3
:10170000809188009091890060910604709107048F
:10171000309101042930E8F4860F971F542F51703F
:1017200046952F5F5317B1F330918000552311F088
:10173000306C02C03F733068309380009093890012
:101740008093880050930104409302042093030483
:101750003DC0293039F42AE0209303042091800011
:10176000206C28C020910004E091FF032E130DC0CF
:1017700010920304809180008F7380938000809189
:101780006F008D7F80936F0021C021E020930304C0
:10179000EF5FE43408F0E0E0E093FF03F0E0E155B0
:1017A000FC4F2081209302041092010420918000BC
:1017B0002F73206820938000209106043091070445
:1017C000820F931F9093890080938800FF91EF917F
:1017D0009F918F917F916F915F914F913F912F9149
:1017E0000F900FBE0F901F9018959B01AC012D3AE2
:1017F0008BE138074105510530F410926F001092CB
:10180000800081E812C063E056954795379527958B
:101810006A95D1F72D3A8BE1380741055105C0F59E
:1018200010926F001092800082E8809381003093C4
:10183000070420930604A5E2B0E00E947219DC01BF
:10184000CB0122E0B695A795979587952A95D1F774
:10185000909309048093080462E088E00E94EF0EF0
:1018600061E089E00E94A30E61E089E00E94EF0E32
:1018700010920C0410925E0410925D041092030406
:10188000109200041092FF0380E286BB80936F00E9
:10189000089508950E94851C0F931F93CF93DF93A3
:1018A000EC0188819981009729F02A813B812617D4
:1018B000370788F48B016F5F7F4F0E94BB1B009737
:1018C00061F0998388831B830A832C813D81232BBC
:1018D00011F4FC01108281E001C080E0DF91CF9122
:1018E0001F910F9108951F920F920FB60F9211241E
:1018F0002F933F938F939F93AF93BF938091F30464
:101900009091F404A091F504B091F6043091F204A2
:1019100023E0230F2D3720F40196A11DB11D05C032
:1019200026E8230F0296A11DB11D2093F204809397
:10193000F3049093F404A093F504B093F60480911B
:10194000F7049091F804A091F904B091FA0401967B
:10195000A11DB11D8093F7049093F804A093F9049E
:10196000B093FA04BF91AF919F918F913F912F91C6
:101970000F900FBE0F901F901895DF92EF92FF927D
:101980000F931F93CF93DF93FC0104811581011501
:10199000110519F48FEF9FEF1AC0EC010190F0814F
:1019A000E02DE00FF11FD0801082E880F980062E34
:1019B000000C770BC7010E94AE1CF701E00FF11F6E
:1019C000D082009739F328813981821B930BDF91F4
:1019D000CF911F910F91FF90EF90DF900895CF93DB
:1019E000DF93FC01248135814217530778F4C081CD
:1019F000D181062E000C770BCE01840F951F0E941B
:101A0000931C009719F08C1B9D0B02C08FEF9FEF6A
:101A1000DF91CF910895FC0124813581621773070E
:101A200048F480819181009729F0FC01E60FF71FAF
:101A30008081089580E00895EF92FF920F931F93A5
:101A4000CF93DF93FC01248135816115710511F479
:101A500080E019C041155105A9F07B01EC018A0114
:101A6000020F131FB8010E944C0C882389F32881B0
:101A700039818C819D81B701820F931F0E94A71C21
:101A80001D830C8381E0DF91CF911F910F91FF9017
:101A9000EF9008950F931F93CF93DF938C01EB0189
:101AA000FC01808191810097B1F068817981611595
:101AB000710579F0428153812C813D814217530792
:101AC00040F00E94A71C8C819D81F801958384833E
:101AD00013C00E94231B88819981F8019183808320
:101AE0008A819B81938382838C819D81958384836A
:101AF000198218821B821A821D821C82DF91CF916B
:101B00001F910F910895CF93DF93EC018881998104
:101B1000009711F00E94231B198218821D821C82DB
:101B20001B821A82DF91CF910895EF92FF920F935B
:101B30001F93CF93DF93EC017B018A01BA010E94CE
:101B40004C0C811104C0CE010E94830D07C01D837F
:101B50000C83B701888199810E94A71CCE01DF9177
:101B6000CF911F910F91FF90EF900895CF93DF9346
:101B7000EC016115710559F0FB0101900020E9F7B6
:101B80003197AF01461B570B0E94950D02C00E9472
:101B9000830DCE01DF91CF910895CF93DF93EC01B8
:101BA000FB018617970761F06081718161157105EE
:101BB00029F0448155810E94950D02C00E94830D39
:101BC000CE01DF91CF910895FC0111821082138222
:101BD0001282158214820C94CD0DFC0180819181BA
:101BE0000C94231BFC011182108213821282158235
:101BF00014826115710551F0FB0101900020E9F795
:101C00003197AF01461B570B0C94950D0895BF9269
:101C1000CF92DF92EF92FF920F931F93CF93DF93B8
:101C20007C016B018A01E9012417350720F4812F1B
:101C30008901C42FD82F62E871E0C7010E94F20D1C
:101C4000D60114968D919C91159708171907D0F419
:101C50008C179D0708F4EC01D601ED91FC911197CA
:101C6000EC0FFD1FB08010824D915C91BA01600FA6
:101C7000711FC7010E94B60DD601ED91FC91EC0FCA
:101C8000FD1FB082C701DF91CF911F910F91FF908F
:101C9000EF90DF90CF90BF9008953FB7F894809178
:101CA000F7049091F804A091F904B091FA0426B5D4
:101CB000A89B05C02F3F19F00196A11DB11D3FBF84
:101CC000BA2FA92F982F8827820F911DA11DB11D12
:101CD000BC01CD0142E0660F771F881F991F4A950E
:101CE000D1F70895EF92FF920F931F93CF93DF9355
:101CF00000D0CDB7DEB78C017B0162E871E00E94B5
:101D0000F20DC7010E94F20597FD0EC08A309105C1
:101D100059F089831A8241E050E0BE016F5F7F4F26
:101D2000C8010E941C0DEDCFC8010F900F90DF91EC
:101D3000CF911F910F91FF90EF900895BC018BEF11
:101D400094E00C94300690E0FC01E950FE4F349191
:101D5000FC01ED51FE4F2491FC01E153FE4FE49153
:101D6000EE2309F43BC0332339F1333091F038F4DA
:101D70003130A9F0323001F584B58F7D12C0373093
:101D800091F03830A1F03430B9F4809180008F7D2B
:101D900003C0809180008F77809380000DC084B550
:101DA0008F7784BD09C08091B0008F7703C0809188
:101DB000B0008F7D8093B000F0E0EE0FFF1FEB537B
:101DC000FE4FA591B4918FB7F894EC91611103C0C7
:101DD00020952E2301C02E2B2C938FBF0895CF93D7
:101DE000DF9390E0FC01ED51FE4F2491FC01E153A3
:101DF000FE4F8491882361F190E0880F991FFC01C8
:101E0000E554FE4FC591D491FC01EB53FE4FA591D3
:101E1000B491611109C09FB7F894888120958223FD
:101E20008883EC912E230BC0623061F49FB7F89445
:101E30003881822F809583238883EC912E2B2C93DD
:101E40009FBF06C08FB7F894E8812E2B28838FBFE1
:101E5000DF91CF9108958F929F92AF92BF92CF92D0
:101E6000DF92EF92FF926B017C010E944D0E4B01BD
:101E70005C01C114D104E104F104F1F00E944D0EA3
:101E8000DC01CB0188199909AA09BB09883E934056
:101E9000A105B10570F321E0C21AD108E108F108EB
:101EA00088EE880E83E0981EA11CB11CC114D104D9
:101EB000E104F10419F7DDCFFF90EF90DF90CF90B0
:101EC000BF90AF909F908F900895CF92DF92EF9246
:101ED000FF920F931F93CF93DF93CDB7DEB7C0551B
:101EE000D1090FB6F894DEBF0FBECDBF6C0162E81A
:101EF00071E0CE01855B9F4F0E94F20D6BE870E0B0
:101F000080E090E00E94F50B60E273E080E090E0FA
:101F10000E942B0F6FE773E08091ED059091EE0525
:101F20000E94490668EC70E080E090E00E942B0F70
:101F300081E2E82E82E0F82EF70165917491CE01DE
:101F400001960E942518CE0101960E949E0E809156
:101F5000ED059091EE05DC01ED91FC910084F18599
:101F6000E02D099518161906ECF46091ED057091B5
:101F7000EE05CE018B5B9F4F0E94720EBE016B5B24
:101F80007F4FCE01855B9F4F0E944A0DCE018B5B38
:101F90009F4F0E94ED0DBE01655B7F4F8BEF94E07C
:101FA0000E9422068BEF94E00E94450664E873E0ED
:101FB0008091ED059091EE050E94490668EC70E075
:101FC00080E090E00E942B0F0FE012E0F801659195
:101FD0007491CE0101960E942518CE0101960E94AF
:101FE0009E0E8091ED059091EE05DC01ED91FC9146
:101FF0000084F185E02D099518161906ECF460911E
:10200000ED057091EE05CE018B5B9F4F0E94720E25
:10201000BE016B5B7F4FCE01855B9F4F0E944A0DD7
:10202000CE018B5B9F4F0E94ED0DBE01655B7F4F24
:102030008BEF94E00E9422068BEF94E00E9445060D
:1020400060ED77E080E090E00E942B0F61968EAD0E
:102050009FAD6197892B29F06BE07AE180E090E0F9
:1020600004C061E473E080E090E00E94F50B68E852
:1020700073E0CE018B5B9F4F0E94F20DF60144810D
:10208000558160817181CE018B5B9F4F0E941C0D39
:10209000811105C0CE018B5B9F4F0E94830DBE0155
:1020A0006B5B7F4FC6010E94CD0DCE018B5B9F4FB6
:1020B0000E94ED0D6CE873E08091ED059091EE05C6
:1020C0000E94490668EC70E080E090E00E942B0FCF
:1020D000E1E1F2E065917491CE0101960E9425182C
:1020E000CE0101960E949E0E8091ED059091EE0525
:1020F000DC01ED91FC910084F185E02D0995181625
:102100001906ECF46091ED057091EE05CE018B5B44
:102110009F4F0E94720EBE016B5B7F4FCE01855BAD
:102120009F4F0E944A0DCE018B5B9F4F0E94ED0D89
:10213000BE01655B7F4F8BEF94E00E9422068BEF20
:1021400094E00E944506B6018091ED059091EE0560
:102150000E94620768EC70E080E090E00E942B0F24
:10216000E3E1F2E065917491CE0101960E94251899
:10217000CE0101960E949E0E8091ED059091EE0594
:10218000DC01ED91FC910084F185E02D0995181694
:102190001906ECF46091ED057091EE05CE018B5BB4
:1021A0009F4F0E94720EBE016B5B7F4FCE01855B1D
:1021B0009F4F0E944A0DCE018B5B9F4F0E94ED0DF9
:1021C000BE01655B7F4F8BEF94E00E9422068BEF90
:1021D00094E00E9445066EE873E08091ED059091D1
:1021E000EE050E94490668EC70E080E090E00E94F5
:1021F0002B0FE7E1F2E065917491CE0101960E9408
:102200002518CE0101960E949E0E8091ED059091B9
:10221000EE05DC01ED91FC910084F185E02D09953E
:1022200018161906ECF46091ED057091EE05CE01DB
:102230008B5B9F4F0E94720EBE016B5B7F4FCE0186
:10224000855B9F4F0E944A0DCE018B5B9F4F0E9482
:10225000ED0DBE01655B7F4F8BEF94E00E9422067F
:102260008BEF94E00E9445066AE973E08091ED05EA
:102270009091EE050E94490668EC70E080E090E0E5
:102280000E942B0FE9E1F2E065917491CE01019675
:102290000E942518CE0101960E949E0E8091ED05A8
:1022A0009091EE05DC01ED91FC910084F185E02D2B
:1022B000099518161906ECF46091ED057091EE057C
:1022C000CE018B5B9F4F0E94720EBE016B5B7F4FF6
:1022D000CE01855B9F4F0E944A0DCE018B5B9F4FC5
:1022E0000E94ED0DBE01655B7F4F8BEF94E00E9475
:1022F00022068BEF94E00E94450666EA73E0809127
:10230000ED059091EE050E94490668EC70E080E0D2
:1023100090E00E942B0FEBE1F2E065917491CE0109
:1023200001960E942518CE0101960E949E0E809172
:10233000ED059091EE05DC01ED91FC910084F185B5
:10234000E02D099518161906ECF46091ED057091D1
:10235000EE05CE018B5B9F4F0E94720EBE016B5B40
:102360007F4FCE01855B9F4F0E944A0DCE018B5B54
:102370009F4F0E94ED0DBE01655B7F4F8BEF94E098
:102380000E9422068BEF94E00E944506EBE0F2E00B
:1023900065917491CE0101960E942518BE016F5F70
:1023A0007F4F8091ED059091EE050E94490668EC03
:1023B00070E080E090E00E942B0FEDE1F2E065918B
:1023C0007491CE0101960E942518CE0101960E94BB
:1023D0009E0E8091ED059091EE05DC01ED91FC9152
:1023E0000084F185E02D099518161906ECF460912A
:1023F000ED057091EE05CE018B5B9F4F0E94720E32
:10240000BE016B5B7F4FCE01855B9F4F0E944A0DE3
:10241000CE018B5B9F4F0E94ED0DBE01655B7F4F30
:102420008BEF94E00E9422068BEF94E00E94450619
:10243000EDE0F2E065917491CE0101960E942518BD
:10244000BE016F5F7F4F8091ED059091EE050E9478
:10245000490668EC70E080E090E00E942B0FEFE10D
:10246000F2E065917491CE0101960E942518CE018B
:1024700001960E949E0E8091ED059091EE05DC0183
:10248000ED91FC910084F185E02D0995181619064F
:10249000ECF46091ED057091EE05CE018B5B9F4FE2
:1024A0000E94720EBE016B5B7F4FCE01855B9F4F1A
:1024B0000E944A0DCE018B5B9F4F0E94ED0DBE0125
:1024C000655B7F4F8BEF94E00E9422068BEF94E0D8
:1024D0000E94450669EA73E08091ED059091EE0552
:1024E0000E94490668EC70E080E090E00E942B0FAB
:1024F000F70165917491CE0101960E942518CE01D5
:1025000001960E949E0E8091ED059091EE05DC01F2
:10251000ED91FC910084F185E02D099518161906BE
:10252000ECF46091ED057091EE05CE018B5B9F4F51
:102530000E94720EBE016B5B7F4FCE01855B9F4F89
:102540000E944A0DCE018B5B9F4F0E94ED0DBE0194
:10255000655B7F4F8BEF94E00E9422068BEF94E047
:102560000E94450664E873E08091ED059091EE05C8
:102570000E94490668EC70E080E090E00E942B0F1A
:10258000F80165917491CE0101960E942518CE0143
:1025900001960E949E0E8091ED059091EE05DC0162
:1025A000ED91FC910084F185E02D0995181619062E
:1025B000ECF46091ED057091EE05CE018B5B9F4FC1
:1025C0000E94720EBE016B5B7F4FCE01855B9F4FF9
:1025D0000E944A0DCE018B5B9F4F0E94ED0DBE0104
:1025E000655B7F4F8BEF94E00E9422068BEF94E0B7
:1025F0000E94450661E473E080E090E00E94F50BE4
:1026000060ED77E080E090E00E942B0FCE01855BCB
:102610009F4F0E94ED0DC05BDF4F0FB6F894DEBFF9
:102620000FBECDBFDF91CF911F910F91FF90EF9023
:10263000DF90CF9008952FB7F8946091F3047091D4
:10264000F4048091F5049091F6042FBF089584EA74
:1026500095E00E94ED0D8AEA95E00E94ED0D80EB79
:1026600095E00E94ED0D86EB95E00E94260A82E738
:1026700091E09093F3058093F20580916F008B7F3A
:1026800080936F0080916F008F7D80936F008091A9
:102690005D0480935E04809103048111FCCF8091DE
:1026A0006F008D7F80936F000895CF93DF93CDB738
:1026B000DEB7E3970FB6F894DEBF0FBECDBF7894B8
:1026C00084B5826084BD84B5816084BD85B5826037
:1026D00085BD85B5816085BD80916E0081608093E8
:1026E0006E00109281008091810082608093810051
:1026F0008091810081608093810080918000816061
:10270000809380008091B10084608093B1008091BB
:10271000B00081608093B00080917A0084608093E3
:102720007A0080917A00826080937A0080917A00AA
:10273000816080937A0080917A00806880937A002B
:102740001092C100E0910B05F0910C0582E08083AE
:10275000E0910705F09108051082E0910905F091DC
:102760000A0587E6808310921305E0910F05F0912A
:10277000100586E08083E0910D05F0910E058081C3
:1027800080618083E0910D05F0910E058081886065
:102790008083E0910D05F0910E0580818068808333
:1027A000E0910D05F0910E0580818F7D808384E698
:1027B00090E0A0E0B0E08093F6059093F705A09339
:1027C000F805B093F90568E572E0CE0101960E9424
:1027D000F20DBE016F5F7F4F8BEF94E00E946207A6
:1027E000CE0101960E94ED0D8BEF94E00E9419023C
:1027F00060E672E0CE0101960E94F20DBE016F5FAD
:102800007F4F8BEF94E00E946207CE0101960E94F9
:10281000ED0D61E08091EC050E94A30E68EC70E084
:1028200080E090E00E942B0F60E08091EC050E9418
:10283000A30E68EC70E080E090E00E942B0F61E056
:102840008091EC050E94A30E68EC70E080E090E0BF
:102850000E942B0F60E08091EC050E94A30E68ECB3
:1028600070E080E090E00E942B0F61E08091EC0529
:102870000E94A30E68EC70E080E090E00E942B0FB5
:1028800060E08091EC050E94A30E68EC70E080E0AF
:1028900090E00E942B0F61E08091EC050E94A30E56
:1028A00068EB7BE080E090E00E942B0F6FE672E027
:1028B000CE0101960E94F20DBE016F5F7F4F8BEF3C
:1028C00094E00E946207CE0101960E94ED0D6FE731
:1028D00072E0CE0101960E94F20DBE016F5F7F4F44
:1028E0008BEF94E00E946207CE0101960E94ED0DED
:1028F00061E972E0CE0101960E94F20DCE010196CF
:102900000E94650FCE0101960E94ED0D69E972E00B
:10291000CE0101960E94F20DBE016F5F7F4F8BEFDB
:1029200094E00E946207CE0101960E94ED0D6AEAD2
:1029300072E0CE0101960E94F20DBE016F5F7F4FE3
:102940008BEF94E00E946207CE0101960E94ED0D8C
:1029500064ED75E086EB95E00E942C036EEB75E06C
:1029600086EB95E00E942C031092F1041092F00483
:102970001092EF041092EE041092ED0481E0809327
:10298000EC041092EB0461E082E10E94A30E61E08E
:1029900083E10E94A30E8091B9008E7F8093B900DD
:1029A0008091B9008D7F8093B90088E48093B8004E
:1029B00085E48093BC0066EC72E0CE0101960E9433
:1029C000F20DBE016F5F7F4F8BEF94E00E946207B4
:1029D000CE0101960E94ED0D68ED72E0CE010196E8
:1029E0000E94F20DBE016F5F7F4F8BEF94E00E945B
:1029F0006207CE0101960E94ED0D66EE72E0CE01F7
:102A000001960E94F20DBE016F5F7F4F8BEF94E045
:102A10000E946207CE0101960E94ED0D61E08DE0FB
:102A20000E94EF0E61E08DE00E94A30E8AE0882EE6
:102A3000912CA12CB12C82EF95E00E9497031816DF
:102A400019060CF0A4C162EF75E0CE018E960E94CB
:102A5000720ECEA4DFA4C114D104E1F10AA91BA90E
:102A600001151105B9F1360173018FEF681A780A63
:102A7000F7018081082E000C990B0E945B18892BAE
:102A800099F7015011090C0D1D1DF8018081082EC8
:102A9000000C990B0E945B18892B79F4A8014F5FF9
:102AA0005F4F4E195F095BAB4AABCE14DF0458F49D
:102AB000B701C6010E948A1C06C00E151F0570F3DF
:102AC00001501109E2CFEEA5FFA58AA99BA9E80F45
:102AD000F91F1082BE01625D7F4FCE0182960E9477
:102AE000E40D65E073E0CE0188960E94F20D4EA1E0
:102AF0005FA16AA17BA1CE0188960E941C0D811165
:102B000004C0CE0188960E94830DBE01685D7F4F90
:102B1000CE0101960E94E40DBE016F5F7F4F8BEFE7
:102B200094E00E946207CE0101960E94ED0DCE0155
:102B300088960E94ED0DCE0182960E94ED0D8BEFDE
:102B400094E00E94190260E070E0CE018E960E942F
:102B50000B0D873509F0F5C061E070E0CE018E966F
:102B60000E940B0D863509F0ECC06CE2CE018E960A
:102B70000E94BD0C2AA93BA921503109AC014F5F2D
:102B80005F4FBE01625D7F4FCE0101960E94070E2E
:102B9000BE016F5F7F4F8AEA95E00E944A0DCE0129
:102BA00001960E94ED0D62E871E080EB95E00E94D5
:102BB000B60D60E573E0CE0101960E94F20DBE01F4
:102BC0006F5F7F4F8BEF94E00E946207CE0101960A
:102BD0000E94ED0D8091AE059091AF051BA21AA247
:102BE0001DA21CA21FA21EA24AE0BE016F5F7F4F62
:102BF0000E944118BE016F5F7F4FCE0182960E94F6
:102C0000B60DBE016E5D7F4F8BEF94E00E946207B0
:102C1000CE0182960E94ED0D6AEA75E0CE01019622
:102C20000E94E40DBE016F5F7F4F8BEF94E00E9426
:102C30006207CE0101960E94ED0D8BEF94E00E9499
:102C40001902E12CF12C8091AE059091AF05E816A8
:102C5000F90608F049C0B7016F5F7F4F8AEA95E037
:102C60000E940B0D082FB7018AEA95E00E940B0D18
:102C7000182F8FEB810F863010F4182F04C01053DB
:102C80001A3008F01FEF8FEB800F863010F4082FFA
:102C90000CC100530A3008F408C11FEF60EB75E067
:102CA000CE0101960E94E40D1AA31BA241E050E060
:102CB000BE016E5D7F4FCE0101960E941C0D8111F9
:102CC00004C0CE0101960E94830DBE016F5F7F4F4D
:102CD00080EB95E00E94CD0DCE0101960E94ED0D96
:102CE00082E0E80EF11CAFCF6DE173E0CE010196FA
:102CF0000E94F20DBE016F5F7F4F8BEF94E00E9448
:102D00006207CE0101960E94ED0D60EB75E0CE01E9
:102D100001960E94E40DBE016F5F7F4F8BEF94E040
:102D20000E946207CE0101960E94ED0D8BEF94E0A8
:102D30000E94190260EB75E086EB95E00E94740733
:102D400022C02AA93BA98091A8059091A90528171E
:102D50003907C9F48EA59FA56091A4057091A505BA
:102D6000009709F079C06115710509F479C0232B2A
:102D700009F481C0FB01808190E0919581959109D2
:102D8000892B09F478C0CE018E960E94ED0D86EB5A
:102D900095E00E94FC028BEF94E00E949B011816C4
:102DA00019060CF056C062E871E0CE0182960E94CE
:102DB000F20D6BEF74E0CE0101960E94720EBE011F
:102DC0006F5F7F4FCE0182960E944A0DCE01019621
:102DD0000E94ED0D0E941B136B017C01BE016E5D14
:102DE0007F4F86EB95E00E9474076DE473E08BEFF4
:102DF00094E00E9449060E941B139B01AC012C1910
:102E00003D094E095F0919A28E010F5D1F4FCA01CE
:102E1000B901A50194010E94661A605DF8016293F0
:102E20008F01211531054105510589F7BF018BEF50
:102E300094E00E9430068BEF94E00E9445066DE41A
:102E400073E08BEF94E00E944906CE0182960E94C7
:102E5000ED0D0E943B02EFCD6115710549F483CF62
:102E6000009749F0232B39F0FC01808190E088CF56
:102E70000E949E1C85CF6BE373E0CE0101960E94F9
:102E8000F20DBE016F5F7F4F8BEF94E00E946207EF
:102E9000CE0101960E94ED0D8BEF94E00E94190285
:102EA00086EB95E00E9449096ECF1F3F09F4F6CEEC
:102EB000F0E11F9F000D1124102FF0CEEF920F9321
:102EC0001F93CF93DF93EBEFF4E01382128288EE2F
:102ED00093E0A0E0B0E084839583A683B7832AE0E3
:102EE00031E03183208325EC30E03587248724ECE2
:102EF00030E03787268720EC30E0318B208B21ECC7
:102F000030E0338B228B22EC30E0358B248B26ECA7
:102F100030E0378B268B118E128E138E148EE8E9DB
:102F2000F5E01382128284839583A683B7832CE114
:102F300031E031832083C2EFD5E01B821A828C837B
:102F40009D83AE83BF8382E791E099838883EFEE10
:102F5000F5E08AE691E09183808312820AEE15E023
:102F600082E691E0F8019183808382E0828361E0D0
:102F70000E94EF0E61E082E00E94A30EF801D4836C
:102F8000C383EE24E3940FEE15E020E144E065E016
:102F900084ED95E00E943A0A83E0E82E21E147E0C3
:102FA00066E08EEB95E00E943A0AC6EBD5E08CE431
:102FB00091E09983888384E090E00E948E1A9B833D
:102FC0008A8382E090E09D838C831F821E8262E868
:102FD00071E080EB95E00E94F20D62E871E08AEA10
:102FE00095E00E94F20D60E773E084EA95E0DF91DE
:102FF000CF911F910F91EF900C94F20D1F93FC0154
:1030000099278827BC01E89411911032E9F319300F
:1030100010F01E30C8F31B3251F01D3249F4689491
:1030200006C00E942C18610F711D811D911D119108
:1030300010531A30B0F33EF49095809570956195D9
:103040007F4F8F4F9F4F1F910895FB01DC0105902B
:103050000D920020E1F70895592F482F372F262F82
:10306000660F771F881F991F660F771F881F991F8C
:10307000620F731F841F951F660F771F881F991F8C
:103080000895BB27FB015527AA27880F991FAA1F60
:10309000A41710F0A41B83955051B9F7A05DAA3373
:1030A00008F0A95DA193009779F7B111B19311923E
:1030B000CB010C94641891110C941E19803219F0F4
:1030C00089508550C8F70895DC01FC01672F719184
:1030D0007723E1F7329704C07C916D9370836291FE
:1030E000AE17BF07C8F30895E89409C097FB3EF4F4
:1030F00090958095709561957F4F8F4F9F4F992345
:10310000A9F0F92F96E9BB279395F69587957795C2
:103110006795B795F111F8CFFAF4BB0F11F460FF82
:103120001BC06F5F7F4F8F4F9F4F16C0882311F0DA
:1031300096E911C0772321F09EE8872F762F05C0EE
:10314000662371F096E8862F70E060E02AF09A9589
:10315000660F771F881FDAF7880F9695879597F97E
:1031600008950E94C4180C9438190E942A1938F046
:103170000E94311920F0952311F00C9421190C9420
:10318000271911240C946C190E94491970F3959F0A
:10319000C1F3950F50E0551F629FF001729FBB274E
:1031A000F00DB11D639FAA27F00DB11DAA1F649FEA
:1031B0006627B00DA11D661F829F2227B00DA11D9D
:1031C000621F739FB00DA11D621F839FA00D611D23
:1031D000221F749F3327A00D611D231F849F600D44
:1031E000211D822F762F6A2F11249F5750409AF06D
:1031F000F1F088234AF0EE0FFF1FBB1F661F771FF9
:10320000881F91505040A9F79E3F510580F00C94C3
:1032100021190C946C195F3FE4F3983ED4F3869522
:1032200077956795B795F795E7959F5FC1F7FE2B63
:10323000880F911D9695879597F908959927882766
:10324000089597F99F6780E870E060E008959FEF28
:1032500080EC089500240A9416161706180609062D
:10326000089500240A9412161306140605060895FC
:10327000092E0394000C11F4882352F0BB0F40F484
:10328000BF2B11F460FF04C06F5F7F4F8F4F9F4FC4
:10329000089557FD9058440F551F59F05F3F71F046
:1032A0004795880F97FB991F61F09F3F79F08795AD
:1032B0000895121613061406551FF2CF4695F1DF36
:1032C00008C0161617061806991FF1CF86957105C6
:1032D000610508940895E894BB2766277727CB01FA
:1032E00097F908950E94B419A59F900DB49F900D71
:1032F000A49F800D911D112408952F923F924F920B
:103300005F926F927F928F929F92AF92BF92CF9275
:10331000DF92EF92FF920F931F93CF93DF93CDB77E
:10332000DEB7CA1BDB0B0FB6F894DEBF0FBECDBFF6
:1033300009942A88398848885F846E847D848C84C7
:103340009B84AA84B984C884DF80EE80FD800C81D0
:103350001B81AA81B981CE0FD11D0FB6F894DEBFB3
:103360000FBECDBFED010895A29FB001B39FC00174
:10337000A39F700D811D1124911DB29F700D811DA1
:103380001124911D08955058BB27AA270E94DB19CC
:103390000C9438190E942A1938F00E94311920F033
:1033A00039F49F3F19F426F40C9427190EF4E09594
:1033B000E7FB0C942119E92F0E94491958F3BA1719
:1033C000620773078407950720F079F4A6F50C943B
:1033D0006B190EF4E0950B2EBA2FA02D0B01B9013D
:1033E00090010C01CA01A0011124FF27591B99F07B
:1033F000593F50F4503E68F11A16F040A22F232F87
:10340000342F4427585FF3CF469537952795A795D6
:10341000F0405395C9F77EF41F16BA0B620B730B7D
:10342000840BBAF09150A1F0FF0FBB1F661F771FEE
:10343000881FC2F70EC0BA0F621F731F841F48F4A3
:10344000879577956795B795F7959E3F08F0B0CF2C
:103450009395880F08F09927EE0F97958795089513
:103460000E94371A6894B1110C946C1908950E9447
:10347000511988F09F5798F0B92F9927B751B0F09C
:10348000E1F0660F771F881F991F1AF0BA95C9F7E8
:1034900014C0B13091F00E946B19B1E008950C9402
:1034A0006B19672F782F8827B85F39F0B93FCCF3B5
:1034B000869577956795B395D9F73EF49095809565
:1034C000709561957F4F8F4F9F4F0895A1E21A2EFF
:1034D000AA1BBB1BFD010DC0AA1FBB1FEE1FFF1FB8
:1034E000A217B307E407F50720F0A21BB30BE40B08
:1034F000F50B661F771F881F991F1A9469F760954F
:103500007095809590959B01AC01BD01CF01089508
:10351000EE0FFF1F0590F491E02D0994CF93DF93F8
:103520008230910510F482E090E0E0910006F09185
:10353000010620E030E0C0E0D0E0309711F140819A
:10354000518148175907C0F04817590761F4828123
:103550009381209719F09B838A832BC09093010657
:103560008093000626C02115310519F04217530734
:1035700018F49A01BE01DF01EF010280F381E02D12
:10358000DCCF2115310509F1281B390B2430310519
:1035900090F412968D919C9113976115710521F00D
:1035A000FB019383828304C09093010680930006FD
:1035B000FD01329644C0FD01E20FF31F8193919308
:1035C000225031092D933C933AC02091FE05309151
:1035D000FF05232B41F42091020130910301309328
:1035E000FF052093FE052091000130910101211576
:1035F000310541F42DB73EB74091040150910501CA
:10360000241B350BE091FE05F091FF05E217F3074F
:10361000A0F42E1B3F0B2817390778F0AC014E5F42
:103620005F4F2417350748F04E0F5F1F5093FF057B
:103630004093FE058193919302C0E0E0F0E0CF015A
:10364000DF91CF9108950F931F93CF93DF9300974E
:1036500009F48CC0FC01329713821282009100069B
:10366000109101060115110581F420813181820F2D
:10367000931F2091FE053091FF052817390779F532
:10368000F093FF05E093FE0571C0D80140E050E0E3
:10369000AE17BF0750F412962D913C911397AD01D0
:1036A0002115310509F1D901F3CF9D01DA013383E9
:1036B000228360817181860F971F8217930769F4B7
:1036C000EC0128813981260F371F2E5F3F4F318350
:1036D00020838A819B8193838283452B29F4F093F5
:1036E0000106E093000642C01396FC93EE931297F6
:1036F000ED01499159919E01240F351FE217F307FF
:1037000071F480819181840F951F029611969C938C
:103710008E938281938113969C938E931297E0E00F
:10372000F0E0D80112968D919C911397009719F0B3
:10373000F8018C01F6CF8D919C9198012E5F3F4F3F
:10374000820F931F2091FE053091FF05281739073E
:1037500069F4309729F4109201061092000602C015
:10376000138212821093FF050093FE05DF91CF9123
:103770001F910F910895A0E0B0E0E1ECFBE10C9403
:103780008119EC01009721F4CB010E948E1AB8C078
:10379000FC01E60FF71F9C0122503109E217F307E5
:1037A00008F4ACC0D9010D911C91119706171707A9
:1037B000B0F00530110508F49FC0C80104978617C2
:1037C000970708F499C002501109061B170B0193C3
:1037D00011936D937C93CF010E94231B8DC05B01DD
:1037E000A01AB10A4C01800E911EA0910006B09162
:1037F000010640E050E0E12CF12C109709F44AC09A
:10380000A815B905D1F56D907C901197630182E000
:10381000C80ED11CCA14DB0480F1A3014A195B094C
:103820006A0182E0C80ED11C1296BC9012971396C2
:10383000AC91B5E0CB16D10440F0B282A3835183A2
:103840004083D9016D937C930AC00E5F1F4FC30163
:10385000800F911FF90191838083EB2DFA2FE114E2
:10386000F10431F0D7011396FC93EE93129744C004
:10387000F0930106E09300063FC08D919C91119753
:103880004817590708F4AC017D0112960D90BC91C0
:10389000A02DB3CF8091FE059091FF058815990565
:1038A000E1F446175707C8F4809100019091010197
:1038B000009741F48DB79EB74091040150910501E6
:1038C000841B950BE817F907C8F4F093FF05E09304
:1038D000FE05F901718360830FC0CB010E948E1A2F
:1038E0007C01009759F0A801BE010E948A1CCE01FC
:1038F0000E94231BC70104C0CE0102C080E090E0FB
:10390000CDB7DEB7EEE00C949D1981E090E0F8941D
:103910000C94B91CFB01DC0102C001900D924150D6
:103920005040D8F70895FC018191861721F0882333
:10393000D9F7992708953197CF010895FB01DC014C
:103940008D91019080190110D9F3990B0895FB0115
:10395000DC0101900D920020E1F70895FC0181E067
:1039600090E00190061609F4CF010020D1F70197ED
:10397000089511E0C3E1D1E004C0FE010E94881A5D
:0C3980002196C431D107C9F7F894FFCF9D
:10398C0000000206800000000000D2013F016A0125
:10399C0019029B0179018D0100000000CD029D02EE
:1039AC00C004450263025402460200000000390ABA
:1039BC000C05BC05CF059403770490038C03880396
:1039CC00EE0465034203C30400000000260A2F0A1C
:1039DC002C037407FC0270095B061005F806000046
:1039EC00000048090A0500000000490C0E05000003
:1039FC000000D0033F01C004CB039703B503A6031B
:103A0C000D0A00456E746572696E67205365744FBC
:103A1C007074696F6E00456E746572696E672067AD
:103A2C0065744E6578744E756D6265724F6653742D
:103A3C0072696E67006E6F7420696E20696620452E
:103A4C0052524F523A20656E64496E6465783E73EB
:103A5C0074617274496E64657820262620656E64E4
:103A6C00496E6465783E3D302026262020737461B3
:103A7C007274496E6465783E3D3000456E746572B3
:103A8C00696E6720454D5353797374656D2E646F61
:103A9C00436F6D6D616E64282900556E6B6E6F7788
:103AAC006E20636F6D6D616E643A2000456E7465B7
:103ABC0072696E6720646F416374696F6E436F6DDA
:103ACC006D616E6400436F6D6D616E64203D206EA0
:103ADC00756C6C2121213A000A53455455503A001B
:103AEC000942543A20524553455454494E47000913
:103AFC0042543A20524553455420444F4E450009F8
:103B0C0042543A20494E495449414C495A494E472E
:103B1C0000454D533134594D000942543A20494E19
:103B2C00495449414C495A45440009454D533A20A2
:103B3C00494E495449414C495A494E472043484102
:103B4C004E4E454C530009454D533A20494E49546D
:103B5C0049414C495A45440009454D533A20535468
:103B6C00415254454400534554555020444F4E4502
:103B7C0020284C45442031332057494C4C20424599
:103B8C00204F4E29000942543A20726563656976CC
:103B9C006564206D6573736167653A200009454D56
:103BAC00535F434D443A20436F6E7665727465647F
:103BBC0020636F6D6D616E643A20000942543A20A7
:103BCC00446973636F6E6E6563746564002F2F00B8
:103BDC0009454D535F434D443A204E6F74696669F5
:103BEC00636174696F6E206C656E6774683A20004F
:103BFC00436F6E6E656374696F6E20456E6400531F
:103C0C00422C3000522C3100534E2C005600535293
:103C1C002C32303030303030300053532C43303075
:0E3C2C00303030303100505A0053422C3200FC
:00000001FF
