:100000000C9414010C943C010C943C010C943C01A4
:100010000C943C010C943C010C943C010C943C016C
:100020000C943C010C943C010C945F0A0C94010B61
:100030000C94180A0C943C010C943C010C943C0167
:100040000C94390C0C943C010C9482070C945C07C2
:100050000C943C010C943C010C943C010C943C012C
:100060000C94B4070C943C0150432C343534643563
:100070003332643533373436353735363537323702
:1000800035366536373264343334382C31382C32D7
:10009000300050532C3435346435333264353336C4
:1000A00035373237363639363336353264343234D2
:1000B0006334353331000909536574204261756436
:1000C000726174653A20000909536574206E657782
:1000D00020707269766174652073657276696365F4
:1000E0002076616C75653A20000909536574206EAD
:1000F00065772070726976617465207365727669C0
:1001000063653A20000909436C6561722070726969
:10011000766174652073657276696365733A000968
:1001200009456E61626C6520707269766174652044
:1001300073657276696365733A20000909536574C3
:10014000207065726970686572616C206D6F64659E
:100150003A20005365742070657269706865726139
:100160006C206D6F6465204170706C6520426C7509
:1001700065746F6F7468204163636573736F727920
:100180002044657369676E2047756964656C696EA4
:100190006573203A20000909536574204E616D652E
:1001A0003A2000090956657273696F6E3A2000099A
:1001B000095265626F6F743F3A200000000000240E
:1001C0000027002A0000000000250028002B000462
:1001D00004040404040404020202020202030303EE
:1001E00003030301020408102040800102040810E8
:1001F0002001020408102000000008000201000095
:10020000030407000000000000000092006800AF37
:1002100001A301960153013B011F010501E900C73C
:1002200000B600001117141311241FBECFEFD8E041
:10023000DEBFCDBF25E0A4E5B3E001C01D92A83A22
:10024000B207E1F713E0A0E0B1E0EEEAF8E302C0A4
:1002500005900D92A435B107D9F711E0C3E1D1E0C3
:1002600004C02197FE010E94191AC231D107C9F7B3
:100270000E9442130C944A1C0C940000CF92DF920F
:10028000EF92FF920F931F93CF93DF936C017A014C
:100290008B01C0E0D0E0CE15DF0589F0D8016D916B
:1002A0008D01D601ED91FC910190F081E02DC60108
:1002B0000995892B11F47E0102C02196ECCFC7016C
:1002C000DF91CF911F910F91FF90EF90DF90CF9032
:1002D0000895FC01538D448D252F30E0842F90E04C
:1002E000821B930B541710F0CF9608950197089531
:1002F000FC01918D828D981761F0828DDF01A80F2E
:10030000B11D5D968C91928D9F5F9F73928F90E04F
:1003100008958FEF9FEF0895FC01918D828D9817BE
:1003200031F0828DE80FF11D858D90E008958FEFFB
:100330009FEF0895FC01918D228D892F90E0805CC4
:100340009F4F821B91098F739927089581EA94E04A
:100350000E949A0121E0892B09F420E0822F089560
:10036000FC01848DDF01A80FB11DA35ABF4F2C9152
:10037000848D90E001968F739927848FA689B78921
:100380002C93A089B1898C9180648C93938D848DFA
:10039000981306C00288F389E02D80818F7D8083C9
:1003A0000895EF92FF920F931F93CF93DF93EC0189
:1003B00081E0888F9B8D8C8D981305C0E889F98921
:1003C000808185FD24C0F62E0B8D10E00F5F1F4F3E
:1003D0000F731127E02E8C8DE8120CC00FB607FCAE
:1003E000FACFE889F989808185FFF5CFCE010E9497
:1003F000B001F1CF8B8DFE01E80FF11DE35AFF4FE5
:10040000F0820B8FEA89FB898081806207C0EE89C8
:10041000FF896083E889F98980818064808381E035
:1004200090E0DF91CF911F910F91FF90EF90089591
:10043000CF93DF93EC01888D8823C9F0EA89FB898B
:10044000808185FD05C0A889B9898C9186FD0FC082
:100450000FB607FCF5CF808185FFF2CFA889B98957
:100460008C9185FFEDCFCE010E94B001E7CFDF91E7
:10047000CF91089580E090E0892B29F00E94A60199
:1004800081110C9400000895089581E090E030916E
:10049000970420919604321710F480E090E0919533
:1004A00081959109089580919704909196048917F8
:1004B00030F48F5F8093970480E090E008958FEF91
:1004C0009FEF08958091960490E020919704821BFD
:1004D0009109089585ED8093BC008091BC0084FD56
:1004E000FCCF10929304089540912704262F30E00A
:1004F000240F311D21323105DCF420919304243086
:10050000C9F4FC0180E090E0861758F4309127048C
:100510002191DC01AB5FBB4FA30FB11D2C93019662
:10052000F3CF80912704680F6093270480E008953B
:1005300081E0089582E00895CF92DF92EF92FF92DA
:100540000F931F93CF93DF937C01262F972F8A0160
:1005500080919004882391F0C62FD72F6E01C40E8E
:10056000D51ECC15DD0571F06991D701ED91FC9197
:100570000190F081E02DC7010995F3CF642F822F00
:100580000E947402C801DF91CF911F910F91FF90DB
:10059000EF90DF90CF900895CF93DF931F92CDB768
:1005A000DEB76983209190042223D1F02091940436
:1005B000203240F021E030E0FC013383228380E0F0
:1005C00090E015C080919504E82FF0E0E059FB4FD2
:1005D000998190838F5F809395048093940405C0E4
:1005E00061E0CE0101960E94740281E090E00F90DC
:1005F000DF91CF910895EF92FF920F931F93CF93C6
:10060000DF937C01C0E0D0E000E010E0F7018681DC
:100610009781C817D907BCF49E01220F331FD70159
:100620001296ED91FC911397E20FF31F8081918157
:10063000DC01ED91FC91008CF18DE02D0995080F06
:10064000191F2196E3CFC801DF91CF911F910F9120
:10065000FF90EF900895FC01268137818481958178
:10066000281739076CF4C901880F991FA281B3813B
:10067000A80FB91F6D937C932F5F3F4F378326835D
:100680000895CF93DF93EC01CB012FEF289FB001AA
:10069000299F700D1124072E000C880B990B0E94C6
:1006A00029182AE037ED43E25CE30E94641820E059
:1006B00030E040E05FE30E9477190E94E3197E87F3
:1006C0006D87DF91CF910895CF93DF93EC01CB013C
:1006D0002FEF289FB001299F700D1124072E000CC9
:1006E000880B990B0E9429182AE037ED43E25CE35E
:1006F0000E94641820E030E040E05FE30E94771938
:100700000E94E3197C876B87DF91CF910895FC01EC
:10071000818592850895FC01728761870895FC01A7
:10072000838194810895FC0182810895509104048D
:1007300040910304852F90E0242F30E0541710F4EB
:10074000805B9F4F821B930B089580910404E0917E
:1007500003048E1731F0F0E0ED54FC4F808190E0FF
:1007600008958FEF9FEF0895809104049091030402
:10077000891769F09F5F903508F090E0E92FF0E06D
:10078000ED54FC4F80819093030490E008958FEF27
:100790009FEF08958091A9038111FCCF0895809166
:1007A000A6038F5F843408F080E09091A50398172A
:1007B000E1F32FB7F8949091A903992341F0E82F22
:1007C000F0E0EB5AFC4F60838093A6031DC081E0EC
:1007D0008093A9036093A8031092A70382E086BBCD
:1007E00080916F00826080936F00809180008F7392
:1007F000806880938000809184009091850040966D
:1008000090938900809388002FBF81E090E0089545
:10081000CF93DF931F92CDB7DEB781E08093900432
:100820008CE28093540310929504109294048EE30A
:1008300095E049830E94CC024981642F8EE395E0C4
:100840000E94CC0280919404813208F045C09091BE
:1008500093049111FCCF92E09093930491E09093D4
:1008600092049FEF90934C0410926E0480936D0459
:10087000A0E7B4E02DE434E0F9019E2F921B981715
:1008800018F49D919193F9CF10926F0480916F04A9
:10089000886580936F0480919104813061F4109297
:1008A000910480916F048093BB008091BC0083FD14
:1008B000F8CF85EC01C085EE8093BC008091930455
:1008C0008230E1F380914C048F3F31F080914C04F1
:1008D000803211F080914C0410929504109294048F
:1008E000109290040F90DF91CF9108950F931F9372
:1008F000CF93DF93EC019B010D851E858B859C8535
:10090000801B910B829FB001839F700D929F700D91
:100910001124072E000C880B990B0E9429182AE03D
:1009200037ED43E25CE30E94641820E030E040E0F1
:100930005FE30E9477190E94E319600F711F6F3FF8
:10094000710531F02CF08FEF90E09C838B8307C012
:1009500077FD03C07C836B8302C01C821B828B816A
:100960009C814FEF50E0481B590B69898F8598890E
:10097000DF91CF911F910F910C940804089580E0AE
:1009800090E008950C94B41A0C94B41A0C94B41A10
:100990002F923F924F925F926F927F928F929F928F
:1009A000AF92BF92CF92DF92EF92FF920F931F937D
:1009B000CF93DF93CDB7DEB72C970FB6F894DEBF99
:1009C0000FBECDBF1C017B014A01290140E050E070
:1009D0006BE5C7010E94B50C5C016DE5C7010E9483
:1009E000830C6C0135018FEF681A780AA3016CE261
:1009F000C7010E94B50C8C01A816B9060CF059C0AD
:100A00008C159D050CF055C0AB20A09409F451C085
:100A1000FFEFCF16DF0609F44CC00F3F8FEF18072A
:100A200009F447C09801A301B701CE0101960E94C5
:100A3000CD0D89819A81009719F00E94B11703C0EA
:100A400060E070E0CB01F40171836083A8014F5F27
:100A50005F4F9601B701CE0107960E94CD0DBE01F2
:100A6000695F7F4FCE0101960E94100DCE0107965F
:100A70000E94B30D89819A81009719F00E94B117E5
:100A800003C060E070E0CB01F20171836083F40188
:100A90008081918197FD07C011E0F10126813781A6
:100AA000821793070CF010E0CE0101960E94B30D5F
:100AB00001C010E0812F2C960FB6F894DEBF0FBE58
:100AC000CDBFDF91CF911F910F91FF90EF90DF90FD
:100AD000CF90BF90AF909F908F907F906F905F90DE
:100AE0004F903F902F900895EF92FF920F931F9396
:100AF000CF93DF9300D000D01F92CDB7DEB78C012B
:100B00007B0160E871E081EA94E00E94470E62E0B8
:100B100070E0C7010E94D10C282F8FEF9FEF9C83BC
:100B20008B839A83898361E070E0C7012D830E94E3
:100B3000D10C2D81833419F08D34A1F066C0243599
:100B400009F063C0D801ED91FC910684F785E02D92
:100B50009E012F5F3F4FAE014D5F5F4FB701C80150
:100B6000099553C0213441F5D801ED91FC910684DB
:100B7000F785E02D9E012F5F3F4FAE014D5F5F4F28
:100B8000B701C8010995882309F43FC0EB81FC81B6
:100B9000EE0FFF1FD80112968D919C911397E80FCD
:100BA000F91F80819181DC01ED91FC9169817A814D
:100BB0000488F589E02D28C0293439F5D801ED9154
:100BC000FC910684F785E02D9E012F5F3F4FAE011B
:100BD0004D5F5F4FB701C80109958823B1F0EB81E4
:100BE000FC81EE0FFF1FD80112968D919C911397F7
:100BF000E80FF91F80819181DC01ED91FC91698101
:100C00007A810688F789E02D09950F900F900F9053
:100C10000F900F90DF91CF911F910F91FF90EF9068
:100C20000895AF92BF92CF92DF92EF92FF920F930F
:100C30001F93CF93DF9300D000D000D0CDB7DEB7A5
:100C40006B017A018A010F5F1F4FAA24AA94BA2C64
:100C5000F6018481958108171907ACF5B801C60122
:100C60000E94D10C80538A3070F58FEFE816F80699
:100C700009F478010F5F1F4FE016F106ECF417FD41
:100C80001BC0F7FC19C09801A7014F5F5F4FB60169
:100C9000CE0101960E94CD0D89819A81009719F0AD
:100CA0000E94B11703C060E070E0CB015B01CE0190
:100CB00001960E94B30DCCCF63E971E081EA94E024
:100CC0000E94470EC5CFC50126960FB6F894DEBF29
:100CD0000FBECDBFDF91CF911F910F91FF90EF908D
:100CE000DF90CF90BF90AF900895CF92DF92EF92B8
:100CF000FF92CF93DF93FC01C580D680E780F0841C
:100D0000C114D104E104F10441F0EC010E942D0C66
:100D10006C157D058E059F0518F480E090E009C0F4
:100D2000E881F9810680F781E02DCE01099581E007
:100D300090E0DF91CF91FF90EF90DF90CF900895FA
:100D40000F931F93CF93DF93EC010E942D0C4985E5
:100D50005A858A01550F220B330BDC01CB01800F22
:100D6000911FA21FB31F8D839E83AF83B887DF912E
:100D7000CF911F910F910895CF93DF93EC0161E024
:100D80008B890E949C0E61E08C890E949C0E81E000
:100D90008A8361E08D89DF91CF910C949C0ECF9373
:100DA000DF93EC014FEF69898F8598890E940804D1
:100DB00062E370E080E090E00E94240F60E08D89A3
:100DC0000E949C0E60E08C890E949C0E60E08B89E2
:100DD0000E949C0E1A821D821E821F821886DF913D
:100DE000CF910895DC01ED91FC91DB0114964D91BA
:100DF0005C9115976D917C910280F381E02D0994AF
:100E00000F931F93CF93DF938C01EB0181EA94E062
:100E10000E94F2068C819D81892BA1F140E050E077
:100E200067E4CE010E94B50C019639F0D801ED912E
:100E3000FC910284F385E02D0DC060E070E0CE01EE
:100E40000E94D10C8F3469F4D801ED91FC91048497
:100E5000F585E02DBE01C801DF91CF911F910F9163
:100E6000099489ED91E00E94970EBE0181EA94E019
:100E70000E94590E81EA94E0DF91CF911F910F916A
:100E80000C941802DF91CF911F910F910895611575
:100E9000710579F0FB0101900020E9F73197AF016E
:100EA000461B570BDC01ED91FC910280F381E02D94
:100EB000099480E090E008951F920F920FB60F9270
:100EC00011242F933F934F935F936F937F938F934F
:100ED0009F93AF93BF93EF93FF9381EA94E00E94B7
:100EE000B001FF91EF91BF91AF919F918F917F9151
:100EF0006F915F914F913F912F910F900FBE0F9087
:100F00001F9018951F920F920FB60F9211242F93D6
:100F10008F939F93EF93FF93E091B104F091B2040C
:100F20008081E091B704F091B80482FD12C09081F5
:100F30008091BA048F5F8F732091BB04821751F0A8
:100F4000E091BA04F0E0EF55FB4F958F8093BA041F
:100F500001C08081FF91EF919F918F912F910F9010
:100F60000FBE0F901F9018951F920F920FB60F9201
:100F700011242F933F934F935F936F937F938F939E
:100F80009F93AF93BF93EF93FF938091B900887FB6
:100F9000803609F49CC068F5883209F45BC090F48F
:100FA000803109F454C038F4882309F4F6C088303D
:100FB00009F44DC0F6C0883109F44CC0803209F400
:100FC0005DC0EFC0803409F468C048F4803309F490
:100FD00055C0883309F0E5C080934C04D8C08035F3
:100FE00009F44FC0883509F45DC0883409F0D9C0D0
:100FF000D6C0883909F4C7C0A8F4883709F467C097
:1010000038F4883609F463C0803709F460C0C9C079
:10101000883809F4B8C0803909F45FC0803809F015
:10102000C0C05BC0803B09F486C038F4803A09F444
:1010300066C0883A09F47FC0B4C0803C09F4A7C0F8
:10104000883C09F4A4C0883B09F48AC0AAC08091F6
:101050006F0410C090916E0480916D04981770F524
:10106000E0916E0481E08E0F80936E04F0E0E35B0C
:10107000FB4F80818093BB0085EC86C080934C043D
:101080008EC0E0916E0481E08E0F80936E0480919B
:10109000BB00F0E0E35BFB4F808390916E04809196
:1010A0006D046EC0E0916E0481E08E0F80936E043B
:1010B0008091BB00F0E0E35BFB4F80838091920462
:1010C00081116DC081E08093910484EA61C083E066
:1010D0008093930410924B04CFCF80914B048032C5
:1010E00008F051C0E0914B0481E08E0F80934B04D7
:1010F0008091BB00F0E0E55DFB4F8083BDCF85ECC8
:101100008093BC001092930480914B04803230F4A1
:10111000E0914B04F0E0E55DFB4F108260914B04E1
:1011200070E0E0912904F0912A048BE294E00995A3
:1011300010924B0436C084E08093930410922804EC
:1011400010922704E0912504F091260409958091DE
:101150002704811105C081E08093270410920504C3
:10116000E091280481E08E0F80932804F0E0EB5F8B
:10117000FB4F80818093BB009091280480912704CD
:10118000981708F479CF85E88093BC000AC085ECF5
:101190008093BC001092930404C010924C040E94EF
:1011A0006A02FF91EF91BF91AF919F918F917F91D3
:1011B0006F915F914F913F912F910F900FBE0F90C4
:1011C0001F90189508950F931F93CF93DF938C0171
:1011D000C0E0D0E0F80186819781C817D907ACF448
:1011E0009E01220F331FD8011296ED91FC911397A7
:1011F000E20FF31F80819181DC01ED91FC9106806B
:10120000F781E02D09952196E5CFDF91CF911F91D0
:101210000F910895EF92FF920F931F93CF93DF9357
:10122000DB0114962D913C911597232B09F498C05E
:101230007B01EC0140E050E063E4CD010E94B50C7D
:10124000AC01019651F0E881F9810088F189E02D27
:10125000B701CE0109958C0102C00FEF1FEF40E0EE
:1012600050E064E5C7010E94B50CAC01019601F1A4
:10127000E881F9810088F189E02DB701CE01099557
:10128000EA81FB819801220F331FE20FF31FA08137
:10129000B181ED91FC911197BC01693883E1780728
:1012A00014F068E873E10684F785E02DCD01099517
:1012B00040E050E069E4C7010E94B50CAC01019622
:1012C000E1F0E881F9810088F189E02DB701CE01D4
:1012D0000995EA81FB819801220F331FE20FF31F6A
:1012E000A081B181ED91FC911197BC016150710910
:1012F0000284F385E02DCD01099517FD28C08E816C
:101300009F81081719071CF5000F111FEA81FB8147
:10131000E00FF11F80819181DC01ED91FC9104804F
:10132000F581E02D09958A819B81FC01E00FF11F79
:1013300080819181DC01ED91FC910288F389E02D9F
:10134000DF91CF911F910F91FF90EF900994CE0103
:10135000DF91CF911F910F91FF90EF900C94E308D4
:101360008BEE91E0DF91CF911F910F91FF90EF9065
:101370000C94970E2CE431E0FC01318320838281B0
:1013800093810C94B41ACF93DF93EC010E94BA09B5
:10139000CE01DF91CF910C94B41A0895EF92FF9291
:1013A0000F931F93CF93DF93FC01D62FF42EC22F00
:1013B0008EE291E09183808314821382128287ED02
:1013C00090E09487838787E390E096878587638B97
:1013D000448B258B81E090E0A0E0B0E0858396838C
:1013E000A783B08792878187108B07878E2D90E027
:1013F000928B818B61E08D2F0E94E80E61E08F2D32
:101400000E94E80E61E08C2F0E94E80E60E08F2DB4
:101410000E949C0E60E08D2F0E949C0E60E08C2F3D
:10142000DF91CF911F910F91FF90EF900C949C0E44
:101430001F920F920FB60F9211242F938F939F93A9
:10144000EF93FF9380916F008B7F80936F0080916B
:1014500081008F7B809381008091B2032091B10342
:1014600020589091B003893020F49695922B8F5F8D
:10147000FACF9093B003809104048F5F803508F019
:1014800080E020910304821739F0E82FF0E0ED545A
:10149000FC4F9083809304041092B20380918100EA
:1014A0008F7B809381001092B103FF91EF919F9108
:1014B0008F912F910F900FBE0F901F9018951F9234
:1014C0000F920FB60F9211242F933F934F935F9378
:1014D0006F937F938F939F93EF93FF9380918600F9
:1014E000909187004091B10320918100442331F015
:1014F0002F7B209381001092B10306C020642093BB
:10150000810020E82093B1033091B203311125C04E
:10151000411168C02091AE033091AF03280F391FED
:1015200030938B0020938A0024E026BB20916F002B
:10153000246020936F002091AC033091AD03820FA3
:10154000931F36952795820F931F9093AB0380933B
:10155000AA0381E08093B20345C04091AA03509151
:10156000AB03E091B1032091B0036091AC037091A3
:10157000AD03841B950B97FD2DC026952E2B460F92
:10158000571F3F5F861B970B3930A8F32093B0039A
:1015900080916F008B7F80936F00809104048F5F38
:1015A000803508F080E090910304891749F0E82F16
:1015B000F0E09091B003ED54FC4F908380930404CD
:1015C000809181008F7B809381001092B1031092F3
:1015D000B20308C02093B0035093AB034093AA0317
:1015E0003093B203FF91EF919F918F917F916F9113
:1015F0005F914F913F912F910F900FBE0F901F90D1
:1016000018951F920F920FB60F9211242F933F93AC
:101610004F935F936F937F938F939F93EF93FF937A
:101620002091A9034091A80380918800909189009E
:101630006091AC037091AD033091A7032930E8F4B9
:10164000860F971F542F517046952F5F5317B1F394
:1016500030918000552311F0306C02C03F73306828
:101660003093800090938900809388005093A70363
:101670004093A8032093A9033DC0293039F42AE000
:101680002093A90320918000206C28C02091A603FC
:10169000E091A5032E130DC01092A9038091800044
:1016A0008F738093800080916F008D7F80936F0097
:1016B00021C021E02093A903EF5FE43408F0E0E0CB
:1016C000E093A503F0E0EB5AFC4F20812093A803A0
:1016D0001092A703209180002F7320682093800030
:1016E0002091AC033091AD03820F931F909389003A
:1016F00080938800FF91EF919F918F917F916F91DF
:101700005F914F913F912F910F900FBE0F901F90BF
:1017100018959B01AC012D3A8BE138074105510525
:1017200030F410926F001092800081E812C063E0E4
:1017300056954795379527956A95D1F72D3A8BE1C0
:10174000380741055105C0F510926F0010928000D6
:1017500082E8809381003093AD032093AC03A5E22F
:10176000B0E00E942519DC01CB0122E0B695A795D7
:10177000979587952A95D1F79093AF038093AE0301
:1017800062E088E00E94E80E61E089E00E949C0E21
:1017900061E089E00E94E80E1092B2031092040406
:1017A000109203041092A9031092A6031092A503AD
:1017B00080E286BB80936F000895089508950E948B
:1017C000161C0F931F93CF93DF93EC0188819981AF
:1017D000009729F02A813B812617370788F48B016F
:1017E0006F5F7F4F0E944C1B009761F09983888345
:1017F0001B830A832C813D81232B11F4FC01108271
:1018000081E001C080E0DF91CF911F910F91089599
:101810003FB7F89480919D0490919E04A0919F04FD
:10182000B091A00426B5A89B05C02F3F19F00196E2
:10183000A11DB11D3FBFBA2FA92F982F8827820F56
:10184000911DA11DB11DBC01CD0142E0660F771FA6
:10185000881F991F4A95D1F708952FB7F894609182
:10186000990470919A0480919B0490919C042FBFDD
:1018700008951F920F920FB60F9211242F933F934A
:101880008F939F93AF93BF938091990490919A0403
:10189000A0919B04B0919C043091980423E0230F05
:1018A0002D3720F40196A11DB11D05C026E8230F98
:1018B0000296A11DB11D20939804809399049093E2
:1018C0009A04A0939B04B0939C0480919D049091F2
:1018D0009E04A0919F04B091A0040196A11DB11D8A
:1018E00080939D0490939E04A0939F04B093A004C2
:1018F000BF91AF919F918F913F912F910F900FBE0C
:101900000F901F901895DF92EF92FF920F931F9305
:10191000CF93DF93FC01048115810115110519F4A2
:101920008FEF9FEF1AC0EC010190F081E02DE00FE6
:10193000F11FD0801082E880F980062E000C770B12
:10194000C7010E943F1CF701E00FF11FD0820097F2
:1019500039F328813981821B930BDF91CF911F913D
:101960000F91FF90EF90DF900895CF93DF93FC01EC
:10197000248135814217530778F4C081D181062E26
:10198000000C770BCE01840F951F0E94241C00973A
:1019900019F08C1B9D0B02C08FEF9FEFDF91CF9151
:1019A0000895FC01248135816217730748F4808112
:1019B0009181009729F0FC01E60FF71F80810895BF
:1019C00080E00895EF92FF920F931F93CF93DF93E0
:1019D000FC01248135816115710511F480E019C085
:1019E00041155105A9F07B01EC018A01020F131F7B
:1019F000B8010E94E10B882389F3288139818C8109
:101A00009D81B701820F931F0E94381C1D830C8398
:101A100081E0DF91CF911F910F91FF90EF9008959A
:101A20000F931F93CF93DF938C01EB01FC01808117
:101A300091810097B1F0688179816115710579F024
:101A4000428153812C813D814217530740F00E940F
:101A5000381C8C819D81F8019583848313C00E947A
:101A6000B41A88819981F801918380838A819B814E
:101A7000938382838C819D819583848319821882CC
:101A80001B821A821D821C82DF91CF911F910F91C0
:101A90000895CF93DF93EC0188819981009711F02D
:101AA0000E94B41A198218821D821C821B821A821B
:101AB000DF91CF910895EF92FF920F931F93CF93F1
:101AC000DF93EC017B018A01BA010E94E10B8111D5
:101AD00004C0CE010E94490D07C01D830C83B701CD
:101AE000888199810E94381CCE01DF91CF911F918E
:101AF0000F91FF90EF900895CF93DF93EC01611564
:101B0000710559F0FB0101900020E9F73197AF0111
:101B1000461B570B0E945B0D02C00E94490DCE016F
:101B2000DF91CF910895CF93DF93EC01FB018617EE
:101B3000970761F0608171816115710529F0448119
:101B400055810E945B0D02C00E94490DCE01DF91BC
:101B5000CF910895FC0111821082138212821582A6
:101B600014820C94930DFC01808191810C94B41A21
:101B7000FC01118210821382128215821482611577
:101B8000710551F0FB0101900020E9F73197AF0199
:101B9000461B570B0C945B0D0895BF92CF92DF92BA
:101BA000EF92FF920F931F93CF93DF937C016B0112
:101BB0008A01E9012417350720F4812F8901C42FF8
:101BC000D82F60E072E0C7010E94B80DD6011496CC
:101BD0008D919C91159708171907D0F48C179D07C4
:101BE00008F4EC01D601ED91FC911197EC0FFD1F6B
:101BF000B08010824D915C91BA01600F711FC701D6
:101C00000E947C0DD601ED91FC91EC0FFD1FB0827E
:101C1000C701DF91CF911F910F91FF90EF90DF905F
:101C2000CF90BF9008950F931F93CF93DF93EC0154
:101C30000E942D0C688779878A879B87E881F981C4
:101C40000284F385E02DCE01099597FF17C00E940D
:101C50002D0C088519852A853B85DC01CB01801B6D
:101C6000910BA20BB30B0C811D812E813F8180173C
:101C70009107A207B30710F38FEF9FEFDF91CF918A
:101C80001F910F9108956EEF71E00C9447070F9329
:101C90001F93CF93DF93EC010E9447078C01CE0185
:101CA0000E94430E800F911FDF91CF911F910F91E2
:101CB00008950F931F93CF93DF93EC010E94F206D8
:101CC0008C01CE010E94430E800F911FDF91CF91B6
:101CD0001F910F910895EF92FF920F931F93CF934F
:101CE000DF9300D0CDB7DEB78C017B0160E072E0FE
:101CF0000E94B80DC7010E94130E97FD0EC08A30D6
:101D0000910559F089831A8241E050E0BE016F5F6E
:101D10007F4FC8010E94E20CEDCFC8010F900F90D9
:101D2000DF91CF911F910F91FF90EF900895BC012B
:101D300081EA94E00C94470790E0FC01E950FE4FE3
:101D40003491FC01ED51FE4F2491FC01E153FE4F13
:101D5000E491EE2309F43BC0332339F1333091F0A1
:101D600038F43130A9F0323001F584B58F7D12C0DE
:101D7000373091F03830A1F03430B9F480918000E0
:101D80008F7D03C0809180008F77809380000DC08D
:101D900084B58F7784BD09C08091B0008F7703C070
:101DA0008091B0008F7D8093B000F0E0EE0FFF1FB8
:101DB000EB53FE4FA591B4918FB7F894EC9161115C
:101DC00003C020952E2301C02E2B2C938FBF089586
:101DD000CF93DF9390E0FC01ED51FE4F2491FC0185
:101DE000E153FE4F8491882361F190E0880F991FA1
:101DF000FC01E554FE4FC591D491FC01EB53FE4F1D
:101E0000A591B491611109C09FB7F894888120957C
:101E100082238883EC912E230BC0623061F49FB73C
:101E2000F8943881822F809583238883EC912E2B20
:101E30002C939FBF06C08FB7F894E8812E2B288380
:101E40008FBFDF91CF9108958F929F92AF92BF92F3
:101E5000CF92DF92EF92FF926B017C010E94080CFF
:101E60004B015C01C114D104E104F104F1F00E94C2
:101E7000080CDC01CB0188199909AA09BB09883E25
:101E80009340A105B10570F321E0C21AD108E10821
:101E9000F10888EE880E83E0981EA11CB11CC114C5
:101EA000D104E104F10419F7DDCFFF90EF90DF904A
:101EB000CF90BF90AF909F908F900895CF92DF9278
:101EC000EF92FF920F931F93CF93DF93CDB7DEB7BF
:101ED000C055D1090FB6F894DEBF0FBECDBF6C015F
:101EE00060E072E0CE01855B9F4F0E94B80D6BE809
:101EF00070E080E090E00E94890B60E273E080E097
:101F000090E00E94240F65E273E080919305909128
:101F100094050E94470E68EC70E080E090E00E941B
:101F2000240F81E2E82E82E0F82EF701659174918A
:101F3000CE0101960E94D817CE0101960E94970EFD
:101F40008091930590919405DC01ED91FC910084C2
:101F5000F185E02D099518161906ECF460919305AA
:101F600070919405CE018B5B9F4F0E946B0EBE015A
:101F70006B5B7F4FCE01855B9F4F0E94100DCE01A2
:101F80008B5B9F4F0E94B30DBE01655B7F4F81EA63
:101F900094E00E94F20681EA94E00E94430E6AE215
:101FA00073E080919305909194050E94470E68EC30
:101FB00070E080E090E00E94240F0FE012E0F80152
:101FC00065917491CE0101960E94D817CE010196B9
:101FD0000E94970E8091930590919405DC01ED91FC
:101FE000FC910084F185E02D099518161906ECF492
:101FF0006091930570919405CE018B5B9F4F0E9479
:102000006B0EBE016B5B7F4FCE01855B9F4F0E94C5
:10201000100DCE018B5B9F4F0E94B30DBE01655B1F
:102020007F4F81EA94E00E94F20681EA94E00E94E8
:10203000430E60ED77E080E090E00E94240F61960F
:102040008EAD9FAD6197892B29F06BE07AE180E03E
:1020500090E004C061E473E080E090E00E94890BAE
:102060006EE273E0CE018B5B9F4F0E94B80DF601CC
:102070004481558160817181CE018B5B9F4F0E94AD
:10208000E20C811105C0CE018B5B9F4F0E94490D70
:10209000BE016B5B7F4FC6010E94930DCE018B5B2F
:1020A0009F4F0E94B30D62E373E08091930590917E
:1020B00094050E94470E68EC70E080E090E00E947A
:1020C000240FE1E1F2E065917491CE0101960E9446
:1020D000D817CE0101960E94970E8091930590919A
:1020E0009405DC01ED91FC910084F185E02D0995CA
:1020F00018161906ECF46091930570919405CE01C1
:102100008B5B9F4F0E946B0EBE016B5B7F4FCE01BE
:10211000855B9F4F0E94100DCE018B5B9F4F0E94ED
:10212000B30DBE01655B7F4F81EA94E00E94F20629
:1021300081EA94E00E94430EB6018091930590914C
:1021400094050E94590E68EC70E080E090E00E94D7
:10215000240FE3E1F2E065917491CE0101960E94B3
:10216000D817CE0101960E94970E80919305909109
:102170009405DC01ED91FC910084F185E02D099539
:1021800018161906ECF46091930570919405CE0130
:102190008B5B9F4F0E946B0EBE016B5B7F4FCE012E
:1021A000855B9F4F0E94100DCE018B5B9F4F0E945D
:1021B000B30DBE01655B7F4F81EA94E00E94F20699
:1021C00081EA94E00E94430E64E373E080919305FA
:1021D000909194050E94470E68EC70E080E090E0DA
:1021E0000E94240FE7E1F2E065917491CE0101961F
:1021F0000E94D817CE0101960E94970E80919305F8
:1022000090919405DC01ED91FC910084F185E02D25
:10221000099518161906ECF46091930570919405D0
:10222000CE018B5B9F4F0E946B0EBE016B5B7F4F9D
:10223000CE01855B9F4F0E94100DCE018B5B9F4F9F
:102240000E94B30DBE01655B7F4F81EA94E00E945E
:10225000F20681EA94E00E94430E60E473E080910C
:102260009305909194050E94470E68EC70E080E021
:1022700090E00E94240FE9E1F2E065917491CE01B3
:1022800001960E94D817CE0101960E94970E809168
:10229000930590919405DC01ED91FC910084F1850A
:1022A000E02D099518161906ECF4609193057091CC
:1022B0009405CE018B5B9F4F0E946B0EBE016B5B42
:1022C0007F4FCE01855B9F4F0E94100DCE018B5B2F
:1022D0009F4F0E94B30DBE01655B7F4F81EA94E082
:1022E0000E94F20681EA94E00E94430E6CE473E0DF
:1022F00080919305909194050E94470E68EC70E0E0
:1023000080E090E00E94240FEBE1F2E0659174918F
:10231000CE0101960E94D817CE0101960E94970E19
:102320008091930590919405DC01ED91FC910084DE
:10233000F185E02D099518161906ECF460919305C6
:1023400070919405CE018B5B9F4F0E946B0EBE0176
:102350006B5B7F4FCE01855B9F4F0E94100DCE01BE
:102360008B5B9F4F0E94B30DBE01655B7F4F81EA7F
:1023700094E00E94F20681EA94E00E94430EEBE0B2
:10238000F2E065917491CE0101960E94D817BE01CA
:102390006F5F7F4F80919305909194050E94470E47
:1023A00068EC70E080E090E00E94240FEDE1F2E044
:1023B00065917491CE0101960E94D817CE010196C5
:1023C0000E94970E8091930590919405DC01ED9108
:1023D000FC910084F185E02D099518161906ECF49E
:1023E0006091930570919405CE018B5B9F4F0E9485
:1023F0006B0EBE016B5B7F4FCE01855B9F4F0E94D2
:10240000100DCE018B5B9F4F0E94B30DBE01655B2B
:102410007F4F81EA94E00E94F20681EA94E00E94F4
:10242000430EEDE0F2E065917491CE0101960E94B9
:10243000D817BE016F5F7F4F8091930590919405EF
:102440000E94470E68EC70E080E090E00E94240F4C
:10245000EFE1F2E065917491CE0101960E94D817E8
:10246000CE0101960E94970E80919305909194055C
:10247000DC01ED91FC910084F185E02D09951816A1
:102480001906ECF46091930570919405CE018B5B75
:102490009F4F0E946B0EBE016B5B7F4FCE01855B31
:1024A0009F4F0E94100DCE018B5B9F4F0E94B30D7A
:1024B000BE01655B7F4F81EA94E00E94F20681EAEB
:1024C00094E00E94430E6FE473E080919305909135
:1024D00094050E94470E68EC70E080E090E00E9456
:1024E000240FF70165917491CE0101960E94D817CF
:1024F000CE0101960E94970E8091930590919405CC
:10250000DC01ED91FC910084F185E02D0995181610
:102510001906ECF46091930570919405CE018B5BE4
:102520009F4F0E946B0EBE016B5B7F4FCE01855BA0
:102530009F4F0E94100DCE018B5B9F4F0E94B30DE9
:10254000BE01655B7F4F81EA94E00E94F20681EA5A
:1025500094E00E94430E6AE273E0809193059091AB
:1025600094050E94470E68EC70E080E090E00E94C5
:10257000240FF80165917491CE0101960E94D8173D
:10258000CE0101960E94970E80919305909194053B
:10259000DC01ED91FC910084F185E02D0995181680
:1025A0001906ECF46091930570919405CE018B5B54
:1025B0009F4F0E946B0EBE016B5B7F4FCE01855B10
:1025C0009F4F0E94100DCE018B5B9F4F0E94B30D59
:1025D000BE01655B7F4F81EA94E00E94F20681EACA
:1025E00094E00E94430E61E473E080E090E00E947A
:1025F000890B60ED77E080E090E00E94240FCE012F
:10260000855B9F4F0E94B30DC05BDF4F0FB6F89400
:10261000DEBF0FBECDBFDF91CF911F910F91FF9015
:10262000EF90DF90CF9008958AE495E00E94B30D7B
:1026300080E595E00E94B30D86E595E00E94B30D1C
:102640008CE595E00E94BA0982E791E090939905A4
:102650008093980580916F008B7F80936F008091AD
:102660006F008F7D80936F0080910304809304043A
:102670008091A9038111FCCF80916F008D7F8093A1
:102680006F000895CF93DF93CDB7DEB7A3970FB652
:10269000F894DEBF0FBECDBF789484B5826084BD50
:1026A00084B5816084BD85B5826085BD85B5816056
:1026B00085BD80916E00816080936E0010928100D4
:1026C000809181008260809381008091810081608F
:1026D0008093810080918000816080938000809150
:1026E000B10084608093B1008091B00081608093DC
:1026F000B00080917A00846080937A0080917A00A3
:10270000826080937A0080917A00816080937A0061
:1027100080917A00806880937A001092C100E091E5
:10272000B104F091B20482E08083E091AD04F091B5
:10273000AE041082E091AF04F091B00487E680838C
:102740001092B904E091B504F091B60486E080835C
:10275000E091B304F091B404808180618083E091C2
:10276000B304F091B404808188608083E091B30465
:10277000F091B404808180688083E091B304F0918B
:10278000B40480818F7D808384E690E0A0E0B0E097
:1027900080939C0590939D05A0939E05B0939F0503
:1027A00061E072E0CE0101960E94B80DBE016F5F3C
:1027B0007F4F81EA94E00E94590ECE0101960E945B
:1027C000B30D81EA94E00E94180269E072E0CE0144
:1027D00001960E94B80DBE016F5F7F4F81EA94E0C1
:1027E0000E94590ECE0101960E94B30D61E08091C6
:1027F00092050E949C0E68EC70E080E090E00E94E0
:10280000240F60E0809192050E949C0E68EC70E0BD
:1028100080E090E00E94240F61E0809192050E9488
:102820009C0E68EC70E080E090E00E94240F60E075
:10283000809192050E949C0E68EC70E080E090E030
:102840000E94240F61E0809192050E949C0E68EC2A
:1028500070E080E090E00E94240F60E0809192059B
:102860000E949C0E68EC70E080E090E00E94240FD3
:1028700061E0809192050E949C0E68EB7BE080E015
:1028800090E00E94240F68E172E0CE0101960E9460
:10289000B80DBE016F5F7F4F81EA94E00E94590E30
:1028A000CE0101960E94B30D68E272E0CE0101965E
:1028B0000E94B80DBE016F5F7F4F81EA94E00E94D5
:1028C000590ECE0101960E94B30D6AE372E0CE016B
:1028D00001960E94B80DCE0101960E945E0FCE01B6
:1028E00001960E94B30D62E472E0CE0101960E944F
:1028F000B80DBE016F5F7F4F81EA94E00E94590ED0
:10290000CE0101960E94B30D63E572E0CE010196FF
:102910000E94B80DBE016F5F7F4F81EA94E00E9474
:10292000590ECE0101960E94B30D6AE775E08CE561
:1029300095E00E942B0364E675E08CE595E00E942B
:102940002B03109297041092960410929504109203
:1029500094041092930481E0809392041092910465
:1029600061E082E10E949C0E61E083E10E949C0E86
:102970008091B9008E7F8093B9008091B9008D7FDE
:102980008093B90088E48093B80085E48093BC000C
:102990006FE672E0CE0101960E94B80DBE016F5F36
:1029A0007F4F81EA94E00E94590ECE0101960E9469
:1029B000B30D61E872E0CE0101960E94B80DBE0130
:1029C0006F5F7F4F81EA94E00E94590ECE0101961D
:1029D0000E94B30D6FE872E0CE0101960E94B80D1F
:1029E000BE016F5F7F4F81EA94E00E94590ECE01D5
:1029F00001960E94B30D61E08DE00E94E80E61E057
:102A00008DE00E949C0E88E995E00E9496031816BE
:102A100019060CF0A4C168E975E0CE014E960E943B
:102A20006B0EEE8CFF8CE114F104E1F10AA11BA105
:102A300001151105B9F1570165018FEFA81AB80A00
:102A4000F6018081082E000C990B0E940E18892B2C
:102A500099F7015011090E0D1F1DF8018081082EF4
:102A6000000C990B0E940E18892B79F4A8014F5F76
:102A70005F4F4C195D095BA34AA3EC14FD0458F4A5
:102A8000B601C7010E941B1C06C00C151D0570F382
:102A900001501109E2CFEE8DFF8D8AA19BA1E80FB5
:102AA000F91F1082BE01625E7F4FCE0142960E94E6
:102AB000AA0D6EEA72E0CE0148960E94B80D4E89CA
:102AC0005F896A897B89CE0148960E94E20C811158
:102AD00004C0CE0148960E94490DBE01685E7F4F3A
:102AE000CE0101960E94AA0DBE016F5F7F4F81EA61
:102AF00094E00E94590ECE0101960E94B30DCE01C2
:102B000048960E94B30DCE0142960E94B30D81EA11
:102B100094E00E94180260E070E0CE014E960E94A0
:102B2000D10C873509F0F5C061E070E0CE014E961A
:102B30000E94D10C863509F0ECC06CE2CE014E96B5
:102B40000E94830C2AA13BA121503109AC014F5FA7
:102B50005F4FBE01625E7F4FCE0101960E94CD0D98
:102B6000BE016F5F7F4F80E595E00E94100DCE01A2
:102B700001960E94B30D60E072E086E595E00E9448
:102B80007C0D66EF72E0CE0101960E94B80DBE0189
:102B90006F5F7F4F81EA94E00E94590ECE0101964B
:102BA0000E94B30D80915405909155051B8A1A8A95
:102BB0001D8A1C8A1F8A1E8A4AE0BE016F5F7F4FF2
:102BC0000E94F417BE016F5F7F4FCE0142960E94B4
:102BD0007C0DBE016E5E7F4F81EA94E00E94590E2B
:102BE000CE0142960E94B30D60E575E0CE010196DC
:102BF0000E94AA0DBE016F5F7F4F81EA94E00E94A0
:102C0000590ECE0101960E94B30D81EA94E00E9414
:102C10001802E12CF12C8091540590915505E8168D
:102C2000F90608F049C0B7016F5F7F4F80E595E076
:102C30000E94D10C082FB70180E595E00E94D10CCD
:102C4000182F8FEB810F863010F4182F04C010530B
:102C50001A3008F01FEF8FEB800F863010F4082F2A
:102C6000D7C000530A3008F4D3C01FEF66E575E003
:102C7000CE0101960E94AA0D1A8B1B8A41E050E0FA
:102C8000BE016E5E7F4FCE0101960E94E20C811163
:102C900004C0CE0101960E94490DBE016F5F7F4FB7
:102CA00086E595E00E94930DCE0101960E94B30D3A
:102CB00082E0E80EF11CAFCF66EC72E0CE01019627
:102CC0000E94B80DBE016F5F7F4F81EA94E00E94C1
:102CD000590ECE0101960E94B30D66E575E0CE0156
:102CE00001960E94AA0DBE016F5F7F4F81EA94E0BA
:102CF0000E94590ECE0101960E94B30D81EA94E024
:102D00000E94180266E575E08CE595E00E940007D8
:102D100022C02AA13BA180914E0590914F05281712
:102D20003907C9F48E8D9F8D60914A0570914B05CE
:102D3000009709F044C06115710509F444C0232BC4
:102D400009F44CC0FB01808190E091958195910937
:102D5000892B09F443C0CE014E960E94B30D8CE539
:102D600095E00E94FB0281EA94E00E949A01181605
:102D7000190614F560E072E0CE0142960E94B80D8B
:102D800061EA74E0CE0101960E946B0EBE016F5F96
:102D90007F4FCE0142960E94100DCE0101960E94F7
:102DA000B30DBE016E5E7F4F8CE595E00E9400077B
:102DB000CE0142960E94B30D0E943A0224CE6115C4
:102DC000710549F4B8CF009749F0232B39F0FC0185
:102DD000808190E0BDCF0E942F1CBACF64EE72E0DC
:102DE000CE0101960E94B80DBE016F5F7F4F81EA50
:102DF00094E00E94590ECE0101960E94B30D81EA23
:102E000094E00E9418028CE595E00E94E308A3CFAD
:102E10001F3F09F42BCFF0E11F9F000D1124102F4D
:102E200025CFEF920F931F93CF93DF93E1EAF4E066
:102E30001382128288EE93E0A0E0B0E08483958351
:102E4000A683B7832AE031E03183208325EC30E08C
:102E50003587248724EC30E03787268720EC30E064
:102E6000318B208B21EC30E0338B228B22EC30E055
:102E7000358B248B26EC30E0378B268B118E128E0F
:102E8000138E148EEEE3F5E0138212828483958311
:102E9000A683B7832CE131E031832083C8E9D5E0F4
:102EA0001B821A828C839D83AE83BF8382E791E06D
:102EB00099838883E5E9F5E08AE691E09183808350
:102EC000128200E915E082E691E0F80191838083A7
:102ED00082E0828361E00E94E80E61E082E00E946D
:102EE0009C0EF801D483C383EE24E39405E915E036
:102EF00020E144E065E08AE795E00E94CE0983E0A6
:102F0000E82E21E147E066E084E695E00E94CE09E4
:102F1000CCE5D5E08CE491E09983888384E090E06F
:102F20000E941F1A9B838A8382E090E09D838C839A
:102F30001F821E8260E072E086E595E00E94B80D77
:102F400060E072E080E595E00E94B80D66E173E014
:102F50008AE495E0DF91CF911F910F91EF900C944F
:102F6000B80D1F93FC0199278827BC01E8941191A3
:102F70001032E9F3193010F01E30C8F31B3251F053
:102F80001D3249F4689406C00E94DF17610F711D5D
:102F9000811D911D119110531A30B0F33EF490959C
:102FA0008095709561957F4F8F4F9F4F1F9108952A
:102FB000FB01DC0105900D920020E1F70895592FE7
:102FC000482F372F262F660F771F881F991F660FF0
:102FD000771F881F991F620F731F841F951F660F2D
:102FE000771F881F991F0895BB27FB015527AA2724
:102FF000880F991FAA1FA41710F0A41B8395505186
:10300000B9F7A05DAA3308F0A95DA193009779F7FD
:10301000B111B1931192CB010C94171891110C942A
:10302000D118803219F089508550C8F70895DC0115
:10303000FC01672F71917723E1F7329704C07C91EF
:103040006D9370836291AE17BF07C8F30895E8943B
:1030500009C097FB3EF490958095709561957F4FE0
:103060008F4F9F4F9923A9F0F92F96E9BB2793958E
:10307000F695879577956795B795F111F8CFFAF49E
:10308000BB0F11F460FF1BC06F5F7F4F8F4F9F4FCF
:1030900016C0882311F096E911C0772321F09EE82D
:1030A000872F762F05C0662371F096E8862F70E093
:1030B00060E02AF09A95660F771F881FDAF7880F6D
:1030C0009695879597F908950E9477180C94EB18B8
:1030D0000E94DD1838F00E94E41820F0952311F0CA
:1030E0000C94D4180C94DA1811240C941F190E9413
:1030F000FC1870F3959FC1F3950F50E0551F629F28
:10310000F001729FBB27F00DB11D639FAA27F00D40
:10311000B11DAA1F649F6627B00DA11D661F829F67
:103120002227B00DA11D621F739FB00DA11D621F4C
:10313000839FA00D611D221F749F3327A00D611D69
:10314000231F849F600D211D822F762F6A2F11244B
:103150009F5750409AF0F1F088234AF0EE0FFF1F7E
:10316000BB1F661F771F881F91505040A9F79E3FD5
:10317000510580F00C94D4180C941F195F3FE4F3B0
:10318000983ED4F3869577956795B795F795E7952B
:103190009F5FC1F7FE2B880F911D9695879597F934
:1031A000089599278827089597F99F6780E870E028
:1031B00060E008959FEF80EC089500240A941616AD
:1031C000170618060906089500240A941216130615
:1031D000140605060895092E0394000C11F48823A3
:1031E00052F0BB0F40F4BF2B11F460FF04C06F5FBF
:1031F0007F4F8F4F9F4F089557FD9058440F551F95
:1032000059F05F3F71F04795880F97FB991F61F068
:103210009F3F79F087950895121613061406551FDF
:10322000F2CF4695F1DF08C0161617061806991F4B
:10323000F1CF86957105610508940895E894BB2740
:1032400066277727CB0197F908950E946719A59FF4
:10325000900DB49F900DA49F800D911D1124089591
:103260002F923F924F925F926F927F928F929F9296
:10327000AF92BF92CF92DF92EF92FF920F931F9384
:10328000CF93DF93CDB7DEB7CA1BDB0B0FB6F89435
:10329000DEBF0FBECDBF09942A88398848885F8475
:1032A0006E847D848C849B84AA84B984C884DF80E6
:1032B000EE80FD800C811B81AA81B981CE0FD11DCA
:1032C0000FB6F894DEBF0FBECDBFED010895A29FEB
:1032D000B001B39FC001A39F700D811D1124911DEA
:1032E000B29F700D811D1124911D08955058BB2768
:1032F000AA270E948E190C94EB180E94DD1838F052
:103300000E94E41820F039F49F3F19F426F40C943D
:10331000DA180EF4E095E7FB0C94D418E92F0E941C
:10332000FC1858F3BA17620773078407950720F053
:1033300079F4A6F50C941E190EF4E0950B2EBA2F15
:10334000A02D0B01B90190010C01CA01A0011124AB
:10335000FF27591B99F0593F50F4503E68F11A1657
:10336000F040A22F232F342F4427585FF3CF4695E8
:1033700037952795A795F0405395C9F77EF41F160A
:10338000BA0B620B730B840BBAF09150A1F0FF0FD4
:10339000BB1F661F771F881FC2F70EC0BA0F621FC0
:1033A000731F841F48F4879577956795B795F795B0
:1033B0009E3F08F0B0CF9395880F08F09927EE0F45
:1033C0009795879508950E94EA196894B1110C9415
:1033D0001F1908950E94041988F09F5798F0B92F7B
:1033E0009927B751B0F0E1F0660F771F881F991F3A
:1033F0001AF0BA95C9F714C0B13091F00E941E19A5
:10340000B1E008950C941E19672F782F8827B85FB4
:1034100039F0B93FCCF3869577956795B395D9F791
:103420003EF490958095709561957F4F8F4F9F4F9B
:103430000895EE0FFF1F0590F491E02D0994CF93AE
:10344000DF938230910510F482E090E0E091A605D0
:10345000F091A70520E030E0C0E0D0E0309711F116
:103460004081518148175907C0F04817590761F446
:1034700082819381209719F09B838A832BC090933C
:10348000A7058093A60526C02115310519F042171E
:10349000530718F49A01BE01DF01EF010280F381A6
:1034A000E02DDCCF2115310509F1281B390B243023
:1034B000310590F412968D919C91139761157105C9
:1034C00021F0FB019383828304C09093A70580932E
:1034D000A605FD01329644C0FD01E20FF31F819362
:1034E0009193225031092D933C933AC02091A40529
:1034F0003091A505232B41F4209102013091030165
:103500003093A5052093A40520910001309101017D
:103510002115310541F42DB73EB74091040150917A
:103520000501241B350BE091A405F091A505E217D8
:10353000F307A0F42E1B3F0B2817390778F0AC01D6
:103540004E5F5F4F2417350748F04E0F5F1F5093B3
:10355000A5054093A4058193919302C0E0E0F0E0BB
:10356000CF01DF91CF9108950F931F93CF93DF93F6
:10357000009709F48CC0FC013297138212820091EB
:10358000A6051091A7050115110581F4208131814F
:10359000820F931F2091A4053091A50528173907A4
:1035A00079F5F093A505E093A40571C0D80140E03A
:1035B00050E0AE17BF0750F412962D913C9113972F
:1035C000AD012115310509F1D901F3CF9D01DA01D2
:1035D0003383228360817181860F971F821793073F
:1035E00069F4EC0128813981260F371F2E5F3F4F88
:1035F000318320838A819B8193838283452B29F4A5
:10360000F093A705E093A60542C01396FC93EE93B2
:103610001297ED01499159919E01240F351FE21730
:10362000F30771F480819181840F951F02961196A2
:103630009C938E938281938113969C938E93129781
:10364000E0E0F0E0D80112968D919C9113970097DD
:1036500019F0F8018C01F6CF8D919C9198012E5FA5
:103660003F4F820F931F2091A4053091A505281785
:10367000390769F4309729F41092A7051092A6052E
:1036800002C0138212821093A5050093A405DF9156
:10369000CF911F910F910895A0E0B0E0E2E5FBE12A
:1036A0000C943419EC01009721F4CB010E941F1AED
:1036B000B8C0FC01E60FF71F9C0122503109E21748
:1036C000F30708F4ACC0D9010D911C9111970617AE
:1036D0001707B0F00530110508F49FC0C801049722
:1036E0008617970708F499C002501109061B170B9B
:1036F000019311936D937C93CF010E94B41A8DC0F6
:103700005B01A01AB10A4C01800E911EA091A60582
:10371000B091A70540E050E0E12CF12C109709F49E
:103720004AC0A815B905D1F56D907C901197630139
:1037300082E0C80ED11CCA14DB0480F1A3014A192F
:103740005B096A0182E0C80ED11C1296BC901297E8
:103750001396AC91B5E0CB16D10440F0B282A383AE
:1037600051834083D9016D937C930AC00E5F1F4F34
:10377000C301800F911FF90191838083EB2DFA2FF4
:10378000E114F10431F0D7011396FC93EE931297F4
:1037900044C0F093A705E093A6053FC08D919C918E
:1037A00011974817590708F4AC017D0112960D9046
:1037B000BC91A02DB3CF8091A4059091A50588154B
:1037C0009905E1F446175707C8F4809100019091DC
:1037D0000101009741F48DB79EB7409104015091CB
:1037E0000501841B950BE817F907C8F4F093A505AC
:1037F000E093A405F901718360830FC0CB010E949F
:103800001F1A7C01009759F0A801BE010E941B1CE1
:10381000CE010E94B41AC70104C0CE0102C080E0EC
:1038200090E0CDB7DEB7EEE00C94501981E090E067
:10383000F8940C944A1CFB01DC0102C001900D922B
:1038400041505040D8F70895FC018191861721F02E
:103850008823D9F7992708953197CF010895FB015F
:10386000DC018D91019080190110D9F3990B089515
:10387000FB01DC0101900D920020E1F70895FC01AD
:1038800081E090E00190061609F4CF010020D1F705
:103890000197089511E0C3E1D1E004C0FE010E9448
:0E38A000191A2196C431D107C9F7F894FFCF49
:1038AE000000A805800000000000D1013E01690162
:1038BE0018029A0178018C0100000000CC029C02D3
:1038CE00BF04440262025302450200000000CD090B
:1038DE00C404BC06CF06930376048F038B038703C1
:1038EE00A00664034103750600000000BA09C3096F
:1038FE002B030007FB020A097405C8041106000019
:10390E000000E208C20400000000DD0BC604000047
:10391E000000CF033E01BF04CA039603B403A50300
:10392E00456E746572696E67205365744F70746965
:10393E006F6E006E6F7420696E206966204552525C
:10394E004F523A20656E64496E6465783E737461B9
:10395E007274496E64657820262620656E64496E01
:10396E006465783E3D302026262020737461727483
:10397E00496E6465783E3D3000556E6B6E6F776EA6
:10398E0020636F6D6D616E643A2000436F6D6D61E3
:10399E006E64203D206E756C6C2121213A000D0A5B
:1039AE00000A53455455503A000942543A205245A4
:1039BE0053455454494E47000942543A20524553F8
:1039CE00455420444F4E45000942543A20494E4931
:1039DE005449414C495A494E4700454D533039528E
:1039EE0048000942543A20494E495449414C495ADB
:1039FE0045440009454D533A20494E495449414CDE
:103A0E00495A494E47204348414E4E454C530009B2
:103A1E00454D533A20494E495449414C495A454423
:103A2E000009454D533A20535441525445440053D6
:103A3E004554555020444F4E4520284C4544203186
:103A4E00332057494C4C204245204F4E2900094205
:103A5E00543A207265636569766564206D6573738B
:103A6E006167653A200009454D535F434D443A2046
:103A7E00436F6E76657274656420636F6D6D616EF3
:103A8E00643A20000942543A20446973636F6E6EA3
:103A9E0065637465640009454D535F434D443A2098
:103AAE004E6F74696669636174696F6E206C656EC2
:103ABE006774683A2000436F6E6E656374696F6E4B
:103ACE0020456E640053422C3000522C3100534E70
:103ADE002C00560053522C32303030303030300003
:103AEE0053532C433030303030303100505A005365
:043AFE00422C320024
:00000001FF
