:100000000C9414010C943C010C943C010C943C01A4
:100010000C943C010C943C010C943C010C943C016C
:100020000C943C010C943C010C94B20A0C94540BBB
:100030000C946B0A0C943C010C943C010C943C0114
:100040000C94C50C0C943C010C94D5070C94AF0790
:100050000C943C010C943C010C943C010C943C012C
:100060000C9407080C943C0150432C34353464350F
:100070003332643533373436353735363537323702
:1000800035366536373264343334382C31382C32D7
:10009000300050532C3435346435333264353336C4
:1000A00035373237363639363336353264343234D2
:1000B0006334353331000909536574204261756436
:1000C000726174653A20000909536574206E657782
:1000D00020707269766174652073657276696365F4
:1000E0002076616C75653A20000909536574206EAD
:1000F00065772070726976617465207365727669C0
:1001000063653A20000909436C6561722070726969
:10011000766174652073657276696365733A000968
:1001200009456E61626C6520707269766174652044
:1001300073657276696365733A20000909536574C3
:10014000207065726970686572616C206D6F64659E
:100150003A20005365742070657269706865726139
:100160006C206D6F6465204170706C6520426C7509
:1001700065746F6F7468204163636573736F727920
:100180002044657369676E2047756964656C696EA4
:100190006573203A20000909536574204E616D652E
:1001A0003A2000090956657273696F6E3A2000099A
:1001B000095265626F6F743F3A200000000000240E
:1001C0000027002A0000000000250028002B000462
:1001D00004040404040404020202020202030303EE
:1001E00003030301020408102040800102040810E8
:1001F0002001020408102000000008000201000095
:10020000030407000000000000000092006800AF37
:1002100001A301960153013B011F010501E900C73C
:1002200000B60000DE160E1311241FBECFEFD8E07B
:10023000DEBFCDBF25E0A2E4B3E001C01D92A63928
:10024000B207E1F713E0A0E0B1E0E8E4F8E302C0B0
:1002500005900D92A234B107D9F711E0C3E1D1E0C6
:1002600004C02197FE010E94E619C231D107C9F7E7
:100270000E943C130C94171C0C9400000895CF921C
:10028000DF92EF92FF920F931F93CF93DF936C0156
:100290007A018B01C0E0D0E0CE15DF0589F0D801EE
:1002A0006D918D01D601ED91FC910190F081E02DD1
:1002B000C6010995892B11F47E0102C02196ECCF6D
:1002C000C701DF91CF911F910F91FF90EF90DF90C9
:1002D000CF900895FC01538D448D252F30E0842F5D
:1002E00090E0821B930B541710F0CF96089501975E
:1002F0000895FC01918D828D981761F0828DDF0148
:10030000A80FB11D5D968C91928D9F5F9F73928F08
:1003100090E008958FEF9FEF0895FC01918D828DFD
:10032000981731F0828DE80FF11D858D90E00895CA
:100330008FEF9FEF0895FC01918D228D892F90E022
:10034000805C9F4F821B91098F73992708958FE8D6
:1003500094E00E949B0121E0892B09F420E0822F88
:100360000895FC01848DDF01A80FB11DA35ABF4F72
:100370002C91848D90E001968F739927848FA689A4
:10038000B7892C93A089B1898C9180648C93938DCB
:10039000848D981306C00288F389E02D80818F7DBB
:1003A00080830895EF92FF920F931F93CF93DF9373
:1003B000EC0181E0888F9B8D8C8D981305C0E889B6
:1003C000F989808185FD24C0F62E0B8D10E00F5F2A
:1003D0001F4F0F731127E02E8C8DE8120CC00FB643
:1003E00007FCFACFE889F989808185FFF5CFCE0136
:1003F0000E94B101F1CF8B8DFE01E80FF11DE35A90
:10040000FF4FF0820B8FEA89FB898081806207C0F1
:10041000EE89FF896083E889F9898081806480831F
:1004200081E090E0DF91CF911F910F91FF90EF90CD
:100430000895CF93DF93EC01888D8823C9F0EA8972
:10044000FB89808185FD05C0A889B9898C9186FDCD
:100450000FC00FB607FCF5CF808185FFF2CFA889CA
:10046000B9898C9185FFEDCFCE010E94B101E7CF14
:10047000DF91CF91089580E090E0892B29F00E94D0
:10048000A70181110C9400000895089581E090E087
:100490003091850420918404321710F480E090E0BC
:1004A0009195819591090895809185049091840496
:1004B000891730F48F5F8093850480E090E0089581
:1004C0008FEF9FEF08958091840490E02091850440
:1004D000821B9109089585ED8093BC008091BC003A
:1004E00084FDFCCF10928104089540911504262FBD
:1004F00030E0240F311D21323105DCF420918104DC
:100500002430C9F4FC0180E090E0861758F4309163
:1005100015042191DC01AD50BC4FA30FB11D2C93EC
:100520000196F3CF80911504680F6093150480E065
:10053000089581E0089582E00895CF92DF92EF92CE
:10054000FF920F931F93CF93DF937C01262F972F5A
:100550008A0180917E04882391F0C62FD72F6E01E7
:10056000C40ED51ECC15DD0571F06991D701ED9152
:10057000FC910190F081E02DC7010995F3CF642F24
:10058000822F0E947502C801DF91CF911F910F91B8
:10059000FF90EF90DF90CF900895CF93DF931F925D
:1005A000CDB7DEB7698320917E042223D1F020915C
:1005B0008204203240F021E030E0FC0133832283CA
:1005C00080E090E015C080918304E82FF0E0E25ACB
:1005D000FB4F998190838F5F809383048093820483
:1005E00005C061E0CE0101960E94750281E090E0B5
:1005F0000F90DF91CF910895EF92FF920F931F9389
:10060000CF93DF937C01C0E0D0E000E010E0F70181
:1006100086819781C817D907BCF49E01220F331F2A
:10062000D7011296ED91FC911397E20FF31F808191
:100630009181DC01ED91FC91008CF18DE02D09950B
:10064000080F191F2196E3CFC801DF91CF911F91A9
:100650000F91FF90EF900895FC01268137818481EE
:100660009581281739076CF4C901880F991FA28159
:10067000B381A80FB91F6D937C932F5F3F4F3783D2
:1006800026830895CF93DF93EC01CB012FEF289FB2
:10069000B001299F700D1124072E000C880B990BB7
:1006A0000E94F6172AE037ED43E25CE30E9431181E
:1006B00020E030E040E05FE30E9444190E94B0195E
:1006C0007E876D87DF91CF910895CF93DF93EC0103
:1006D000CB012FEF289FB001299F700D1124072E09
:1006E000000C880B990B0E94F6172AE037ED43E2C5
:1006F0005CE30E94311820E030E040E05FE30E94BC
:1007000044190E94B0197C876B87DF91CF910895BF
:10071000FC01818592850895FC01728761870895A7
:10072000FC01838194810895FC0182810895509198
:10073000F2034091F103852F90E0242F30E054170D
:1007400010F4805B9F4F821B930B08958091F203FE
:10075000E091F1038E1731F0F0E0EF55FC4F80810E
:1007600090E008958FEF9FEF08958091F2039091AC
:10077000F103891769F09F5F903508F090E0E92F49
:10078000F0E0EF55FC4F80819093F10390E00895E5
:100790008FEF9FEF0895809197038111FCCF08950B
:1007A000809194038F5F843408F080E090919303EC
:1007B0009817E1F32FB7F89490919703992341F09C
:1007C000E82FF0E0ED5BFC4F6083809394031DC045
:1007D00081E080939703609396031092950382E0E3
:1007E00086BB80916F00826080936F008091800053
:1007F0008F73806880938000809184009091850041
:10080000409690938900809388002FBF81E090E00C
:100810000895CF93DF931F92CDB7DEB781E0809329
:100820007E048CE28093420310928304109282042F
:100830008CE295E049830E94CD024981642F8CE2CD
:1008400095E00E94CD0280918204813208F045C07B
:10085000909181049111FCCF92E09093810491E0FA
:10086000909380049FEF90933A0410925C048093DD
:100870005B04AEE5B4E02BE334E0F9019E2F921B5C
:10088000981718F49D919193F9CF10925D0480917F
:100890005D04886580935D0480917F04813061F4FC
:1008A00010927F0480915D048093BB008091BC0016
:1008B00083FDF8CF85EC01C085EE8093BC0080916C
:1008C00081048230E1F380913A048F3F31F08091CE
:1008D0003A04803211F080913A041092830410920D
:1008E000820410927E040F90DF91CF9108950F93B0
:1008F0001F93CF93DF93EC019B010D851E858B85A4
:100900009C85801B910B829FB001839F700D929FED
:10091000700D1124072E000C880B990B0E94F617FE
:100920002AE037ED43E25CE30E94311820E030E03A
:1009300040E05FE30E9444190E94B019600F711FEC
:100940006F3F710531F02CF08FEF90E09C838B832B
:1009500007C077FD03C07C836B8302C01C821B82AF
:100960008B819C814FEF50E0481B590B69898F8523
:100970009889DF91CF911F910F910C9409040895EC
:1009800080E090E00895CF92DF92EF92FF92CF93B4
:10099000DF93FC01C580D680E780F084C114D104C8
:1009A000E104F10441F0EC010E94B90C6C157D05E5
:1009B0008E059F0518F480E090E009C0E881F98178
:1009C0000680F781E02DCE01099581E090E0DF916E
:1009D000CF91FF90EF90DF90CF9008950F931F93EA
:1009E000CF93DF93EC010E94B90C49855A858A01A7
:1009F000550F220B330BDC01CB01800F911FA21F7F
:100A0000B31F8D839E83AF83B887DF91CF911F91F2
:100A10000F9108950C94811A0C94811A0C94811AE8
:100A2000EF92FF920F931F93CF93DF9300D000D0EC
:100A30001F92CDB7DEB78C017B0162E070E0C70189
:100A40000E945D0D282F8FEF9FEF9C838B839A83ED
:100A5000898361E070E0C7012D830E945D0D2D81C7
:100A6000833419F08D34A1F066C0243509F063C0D9
:100A7000D801ED91FC910684F785E02D9E012F5F52
:100A80003F4FAE014D5F5F4FB701C801099553C09D
:100A9000213441F5D801ED91FC910684F785E02DD4
:100AA0009E012F5F3F4FAE014D5F5F4FB701C80101
:100AB0000995882309F43FC0EB81FC81EE0FFF1FED
:100AC000D80112968D919C911397E80FF91F8081A0
:100AD0009181DC01ED91FC9169817A810488F5892D
:100AE000E02D28C0293439F5D801ED91FC91068418
:100AF000F785E02D9E012F5F3F4FAE014D5F5F4FA9
:100B0000B701C80109958823B1F0EB81FC81EE0F94
:100B1000FF1FD80112968D919C911397E80FF91F32
:100B200080819181DC01ED91FC9169817A81068857
:100B3000F789E02D09950F900F900F900F900F906F
:100B4000DF91CF911F910F91FF90EF9008952F9219
:100B50003F924F925F926F927F928F929F92AF924D
:100B6000BF92CF92DF92EF92FF920F931F93CF939A
:100B7000DF93CDB7DEB72C970FB6F894DEBF0FBE6C
:100B8000CDBF1C017B014A01290140E050E06BE52B
:100B9000C7010E94410D5C016DE5C7010E940F0D68
:100BA0006C0135018FEF681A780AA3016CE2C70166
:100BB0000E94410D8C01A816B9060CF059C08C1585
:100BC0009D050CF055C0AB20A09409F451C0FFEF77
:100BD000CF16DF0609F44CC00F3F8FEF180709F45A
:100BE00047C09801A301B701CE0101960E94590E9A
:100BF00089819A81009719F00E947E1703C060E0F6
:100C000070E0CB01F40171836083A8014F5F5F4FF7
:100C10009601B701CE0107960E94590EBE01695F89
:100C20007F4FCE0101960E949C0DCE0107960E9437
:100C30003F0E89819A81009719F00E947E1703C0A8
:100C400060E070E0CB01F20171836083F401808188
:100C5000918197FD07C011E0F1012681378182174C
:100C600093070CF010E0CE0101960E943F0E01C0E8
:100C700010E0812F2C960FB6F894DEBF0FBECDBFCB
:100C8000DF91CF911F910F91FF90EF90DF90CF9068
:100C9000BF90AF909F908F907F906F905F904F909C
:100CA0003F902F900895CF93DF93EC0161E08B8903
:100CB0000E94551261E08C890E94551281E08A835E
:100CC00061E08D89DF91CF910C945512CF93DF9322
:100CD000EC014FEF69898F8598890E94090462E3CE
:100CE00070E080E090E00E947F0C60E08D890E94BF
:100CF000551260E08C890E94551260E08B890E9439
:100D000055121A821D821E821F821886DF91CF9192
:100D100008950F931F93CF93DF93EC010E94B90CBA
:100D2000688779878A879B87E881F9810284F385C0
:100D3000E02DCE01099597FF17C00E94B90C0885D8
:100D400019852A853B85DC01CB01801B910BA20B09
:100D5000B30B0C811D812E813F8180179107A20763
:100D6000B30710F38FEF9FEFDF91CF911F910F919A
:100D70000895DC01ED91FC91DB0114964D915C919D
:100D800015976D917C910280F381E02D0994611596
:100D9000710579F0FB0101900020E9F73197AF016F
:100DA000461B570BDC01ED91FC910280F381E02D95
:100DB000099480E090E0089560E871E00C94C70623
:100DC0000F931F93CF93DF93EC010E94C7068C0112
:100DD000CE010E94DC06800F911FDF91CF911F9101
:100DE0000F910895AF92BF92CF92DF92EF92FF9250
:100DF0000F931F93CF93DF9300D000D000D0CDB7D7
:100E0000DEB76B017A018A010F5F1F4FAA24AA94F3
:100E1000BA2CF6018481958108171907ACF5B80141
:100E2000C6010E945D0D80538A3070F58FEFE81681
:100E3000F80609F478010F5F1F4FE016F106ECF495
:100E400017FD1BC0F7FC19C09801A7014F5F5F4F4A
:100E5000B601CE0101960E94590E89819A810097B0
:100E600019F00E947E1703C060E070E0CB015B01C7
:100E7000CE0101960E943F0ECCCF63E871E08FE86F
:100E800094E00E94E006C5CFC50126960FB6F894FF
:100E9000DEBF0FBECDBFDF91CF911F910F91FF90AD
:100EA000EF90DF90CF90BF90AF9008950F931F9376
:100EB000CF93DF93EC010E94B9068C01CE010E9412
:100EC000DC06800F911FDF91CF911F910F91089544
:100ED0000F931F93CF93DF938C01EB018FE894E086
:100EE0000E94B9068C819D81892BA1F140E050E0E0
:100EF00067E4CE010E94410D019639F0D801ED91D1
:100F0000FC910284F385E02D0DC060E070E0CE011D
:100F10000E945D0D8F3469F4D801ED91FC91048439
:100F2000F585E02DBE01C801DF91CF911F910F9192
:100F3000099489EC91E00E940913BE018FE894E0C6
:100F40000E9456078FE894E0DF91CF911F910F9197
:100F50000C941902DF91CF911F910F9108951F9268
:100F60000F920FB60F9211242F933F934F935F93DD
:100F70006F937F938F939F93AF93BF93EF93FF9361
:100F80008FE894E00E94B101FF91EF91BF91AF9182
:100F90009F918F917F916F915F914F913F912F9191
:100FA0000F900FBE0F901F9018951F920F920FB6C3
:100FB0000F9211242F938F939F93EF93FF93E091C0
:100FC0009F04F091A0048081E091A504F091A60413
:100FD00082FD12C090818091A8048F5F8F73209151
:100FE000A904821751F0E091A804F0E0E157FB4F0B
:100FF000958F8093A80401C08081FF91EF919F910C
:101000008F912F910F900FBE0F901F9018951F92E8
:101010000F920FB60F9211242F933F934F935F932C
:101020006F937F938F939F93AF93BF93EF93FF93B0
:101030008091B900887F803609F49CC068F58832B9
:1010400009F45BC090F4803109F454C038F488236B
:1010500009F4F6C0883009F44DC0F6C0883109F4AF
:101060004CC0803209F45DC0EFC0803409F468C020
:1010700048F4803309F455C0883309F0E5C0809303
:101080003A04D8C0803509F44FC0883509F45DC0F2
:10109000883409F0D9C0D6C0883909F4C7C0A8F48B
:1010A000883709F467C038F4883609F463C080379C
:1010B00009F460C0C9C0883809F4B8C0803909F49F
:1010C0005FC0803809F0C0C05BC0803B09F486C0B7
:1010D00038F4803A09F466C0883A09F47FC0B4C095
:1010E000803C09F4A7C0883C09F4A4C0883B09F4FB
:1010F0008AC0AAC080915D0410C090915C04809168
:101100005B04981770F5E0915C0481E08E0F80938A
:101110005C04F0E0E55CFB4F80818093BB0085ECD4
:1011200086C080933A048EC0E0915C0481E08E0F0B
:1011300080935C048091BB00F0E0E55CFB4F808312
:1011400090915C0480915B046EC0E0915C0481E04E
:101150008E0F80935C048091BB00F0E0E55CFB4F58
:1011600080838091800481116DC081E080937F0431
:1011700084EA61C083E08093810410923904CFCF68
:1011800080913904803208F051C0E091390481E047
:101190008E0F809339048091BB00F0E0E75EFB4F37
:1011A0008083BDCF85EC8093BC0010928104809138
:1011B0003904803230F4E0913904F0E0E75EFB4F0F
:1011C00010826091390470E0E0911704F0911804E6
:1011D00089E194E009951092390436C084E0809347
:1011E00081041092160410921504E0911304F091FA
:1011F0001404099580911504811105C081E0809344
:1012000015041092F303E091160481E08E0F809391
:101210001604F0E0ED50FC4F80818093BB0090916C
:10122000160480911504981708F479CF85E8809307
:10123000BC000AC085EC8093BC001092810404C0FD
:1012400010923A040E946B02FF91EF91BF91AF910F
:101250009F918F917F916F915F914F913F912F91CE
:101260000F900FBE0F901F90189508950F931F9326
:10127000CF93DF938C01C0E0D0E0F80186819781A5
:10128000C817D907ACF49E01220F331FD80112965C
:10129000ED91FC911397E20FF31F80819181DC01A6
:1012A000ED91FC910680F781E02D09952196E5CF1F
:1012B000DF91CF911F910F910895EF92FF920F93BD
:1012C0001F93CF93DF93DB0114962D913C911597DB
:1012D000232B09F498C07B01EC0140E050E063E46B
:1012E000CD010E94410DAC01019651F0E881F981D8
:1012F0000088F189E02DB701CE0109958C0102C06B
:101300000FEF1FEF40E050E064E5C7010E94410D80
:10131000AC01019601F1E881F9810088F189E02DA5
:10132000B701CE010995EA81FB819801220F331F95
:10133000E20FF31FA081B181ED91FC911197BC01E7
:10134000693883E1780714F068E873E10684F7856B
:10135000E02DCD01099540E050E069E4C7010E940D
:10136000410DAC010196E1F0E881F9810088F18935
:10137000E02DB701CE010995EA81FB819801220F8A
:10138000331FE20FF31FA081B181ED91FC91119702
:10139000BC01615071090284F385E02DCD010995EE
:1013A00017FD28C08E819F81081719071CF5000FB3
:1013B000111FEA81FB81E00FF11F80819181DC0127
:1013C000ED91FC910480F581E02D09958A819B8146
:1013D000FC01E00FF11F80819181DC01ED91FC9116
:1013E0000288F389E02DDF91CF911F910F91FF903B
:1013F000EF900994CE01DF91CF911F910F91FF9053
:10140000EF900C9436098BED91E0DF91CF911F9115
:101410000F91FF90EF900C9409132CE431E0FC0144
:1014200031832083828193810C94811ACF93DF933F
:10143000EC010E940D0ACE01DF91CF910C94811A2C
:101440000895EF92FF920F931F93CF93DF93FC01C8
:10145000D62FF42EC22F8EE291E0918380831482E6
:101460001382128287ED90E09487838787E390E070
:1014700096878587638B448B258B81E090E0A0E085
:10148000B0E085839683A783B08792878187108B8E
:1014900007878E2D90E0928B818B61E08D2F0E94CB
:1014A000A11261E08F2D0E94A11261E08C2F0E9499
:1014B000A11260E08F2D0E94551260E08D2F0E94D6
:1014C000551260E08C2FDF91CF911F910F91FF900B
:1014D000EF900C9455121F920F920FB60F92112499
:1014E0002F938F939F93EF93FF9380916F008B7F48
:1014F00080936F00809181008F7B80938100809129
:10150000A00320919F03205890919E03893020F4DE
:101510009695922B8F5FFACF90939E038091F20362
:101520008F5F803508F080E02091F103821739F059
:10153000E82FF0E0EF55FC4F90838093F203109278
:10154000A003809181008F7B8093810010929F0384
:10155000FF91EF919F918F912F910F900FBE0F9060
:101560001F9018951F920F920FB60F9211242F9370
:101570003F934F935F936F937F938F939F93EF93DB
:10158000FF93809186009091870040919F03209166
:101590008100442331F02F7B2093810010929F0320
:1015A00006C020642093810020E820939F0330919F
:1015B000A003311125C0411168C020919C033091D6
:1015C0009D03280F391F30938B0020938A0024E05D
:1015D00026BB20916F00246020936F0020919A0316
:1015E00030919B03820F931F36952795820F931F8F
:1015F000909399038093980381E08093A00345C062
:101600004091980350919903E0919F0320919E038C
:1016100060919A0370919B03841B950B97FD2DC0DD
:1016200026952E2B460F571F3F5F861B970B393091
:10163000A8F320939E0380916F008B7F80936F00AF
:101640008091F2038F5F803508F080E09091F10384
:10165000891749F0E82FF0E090919E03EF55FC4F79
:1016600090838093F203809181008F7B809381002F
:1016700010929F031092A00308C020939E035093E2
:101680009903409398033093A003FF91EF919F91AA
:101690008F917F916F915F914F913F912F910F901B
:1016A0000FBE0F901F9018951F920F920FB60F92BA
:1016B00011242F933F934F935F936F937F938F9357
:1016C0009F93EF93FF93209197034091960380910E
:1016D00088009091890060919A0370919B033091EA
:1016E00095032930E8F4860F971F542F51704695C3
:1016F0002F5F5317B1F330918000552311F0306CF8
:1017000002C03F73306830938000909389008093CB
:1017100088005093950340939603209397033DC010
:10172000293039F42AE02093970320918000206C1F
:1017300028C020919403E09193032E130DC01092C2
:101740009703809180008F738093800080916F0059
:101750008D7F80936F0021C021E020939703EF5F7E
:10176000E43408F0E0E0E0939303F0E0ED5BFC4F3D
:1017700020812093960310929503209180002F736F
:1017800020682093800020919A0330919B03820F60
:10179000931F9093890080938800FF91EF919F9110
:1017A0008F917F916F915F914F913F912F910F900A
:1017B0000FBE0F901F9018959B01AC012D3A8BE145
:1017C00038074105510530F410926F0010928000E7
:1017D00081E812C063E056954795379527956A953D
:1017E000D1F72D3A8BE1380741055105C0F510922C
:1017F0006F001092800082E88093810030939B03F9
:1018000020939A03A5E2B0E00E94F218DC01CB011C
:1018100022E0B695A795979587952A95D1F790934D
:101820009D0380939C0362E088E00E94A11261E026
:1018300089E00E94551261E089E00E94A112109295
:10184000A0031092F2031092F103109297031092EA
:1018500094031092930380E286BB80936F000895F7
:1018600008953FB7F89480918B0490918C04A091D7
:101870008D04B0918E0426B5A89B05C02F3F19F0AA
:101880000196A11DB11D3FBFBA2FA92F982F882700
:10189000820F911DA11DB11DBC01CD0142E0660F5B
:1018A000771F881F991F4A95D1F708950E94E31B5F
:1018B0000F931F93CF93DF93EC0188819981009759
:1018C00029F02A813B812617370788F48B016F5F47
:1018D0007F4F0E94191B009761F0998388831B83B7
:1018E0000A832C813D81232B11F4FC01108281E0BD
:1018F00001C080E0DF91CF911F910F9108958F92E9
:101900009F92AF92BF92CF92DF92EF92FF926B01C4
:101910007C010E94310C4B015C01C114D104E10433
:10192000F104F1F00E94310CDC01CB018819990916
:10193000AA09BB09883E9340A105B10570F321E0D7
:10194000C21AD108E108F10888EE880E83E0981EDB
:10195000A11CB11CC114D104E104F10419F7DDCFBD
:10196000FF90EF90DF90CF90BF90AF909F908F90BF
:1019700008952FB7F894609187047091880480913E
:10198000890490918A042FBF08951F920F920FB679
:101990000F9211242F933F938F939F93AF93BF93F5
:1019A0008091870490918804A0918904B0918A0461
:1019B0003091860423E0230F2D3720F40196A11DDA
:1019C000B11D05C026E8230F0296A11DB11D20936D
:1019D00086048093870490938804A0938904B0932D
:1019E0008A0480918B0490918C04A0918D04B09115
:1019F0008E040196A11DB11D80938B0490938C04DD
:101A0000A0938D04B0938E04BF91AF919F918F915D
:101A10003F912F910F900FBE0F901F901895DF925E
:101A2000EF92FF920F931F93CF93DF93FC010481FA
:101A300015810115110519F48FEF9FEF1AC0EC0104
:101A40000190F081E02DE00FF11FD0801082E8803E
:101A5000F980062E000C770BC7010E940C1CF701C1
:101A6000E00FF11FD082009739F328813981821B62
:101A7000930BDF91CF911F910F91FF90EF90DF902B
:101A80000895CF93DF93FC012481358142175307DA
:101A900078F4C081D181062E000C770BCE01840F23
:101AA000951F0E94F11B009719F08C1B9D0B02C023
:101AB0008FEF9FEFDF91CF910895FC012481358155
:101AC0006217730748F480819181009729F0FC0127
:101AD000E60FF71F8081089580E00895EF92FF924E
:101AE0000F931F93CF93DF93FC0124813581611500
:101AF000710511F480E019C041155105A9F07B0171
:101B0000EC018A01020F131FB8010E94580C8823B0
:101B100089F3288139818C819D81B701820F931FC0
:101B20000E94051C1D830C8381E0DF91CF911F91E2
:101B30000F91FF90EF9008950F931F93CF93DF9332
:101B40008C01EB01FC01808191810097B1F06881EB
:101B500079816115710579F0428153812C813D8134
:101B60004217530740F00E94051C8C819D81F801AB
:101B70009583848313C00E94811A88819981F8011A
:101B8000918380838A819B81938382838C819D81D1
:101B900095838483198218821B821A821D821C827B
:101BA000DF91CF911F910F910895CF93DF93EC01B7
:101BB00088819981009711F00E94811A19821882F8
:101BC0001D821C821B821A82DF91CF910895EF92B1
:101BD000FF920F931F93CF93DF93EC017B018A0158
:101BE000BA010E94580C811104C0CE010E94D50D8B
:101BF00007C01D830C83B701888199810E94051C51
:101C0000CE01DF91CF911F910F91FF90EF9008953A
:101C1000CF93DF93EC016115710559F0FB01019041
:101C20000020E9F73197AF01461B570B0E94E70DE3
:101C300002C00E94D50DCE01DF91CF910895CF93C0
:101C4000DF93EC01FB018617970761F060817181DA
:101C50006115710529F0448155810E94E70D02C08C
:101C60000E94D50DCE01DF91CF910895FC01118224
:101C7000108213821282158214820C941F0EFC01B2
:101C8000808191810C94811AFC011182108213824F
:101C90001282158214826115710551F0FB010190C9
:101CA0000020E9F73197AF01461B570B0C94E70D65
:101CB0000895BF92CF92DF92EF92FF920F931F93FE
:101CC000CF93DF937C016B018A01E901241735076B
:101CD00020F4812F8901C42FD82F62E871E0C70159
:101CE0000E94440ED60114968D919C911597081769
:101CF0001907D0F48C179D0708F4EC01D601ED917B
:101D0000FC911197EC0FFD1FB08010824D915C91FA
:101D1000BA01600F711FC7010E94080ED601ED9134
:101D2000FC91EC0FFD1FB082C701DF91CF911F9195
:101D30000F91FF90EF90DF90CF90BF900895CF92DA
:101D4000DF92EF92FF920F931F93CF93DF93CDB764
:101D5000DEB7C055D1090FB6F894DEBF0FBECDBFB8
:101D60006C0162E871E0CE01855B9F4F0E94440EDA
:101D70006BE870E080E090E00E94DC0B60E273E0D2
:101D800080E090E00E947F0C63E073E08091810529
:101D9000909182050E94E00668EC70E080E090E09F
:101DA0000E947F0C81E2E82E82E0F82EF701659117
:101DB0007491CE0101960E94A517CE0101960E9452
:101DC00009138091810590918205DC01ED91FC91D0
:101DD0000084F185E02D099518161906ECF4609140
:101DE000810570918205CE018B5B9F4F0E94DD12B1
:101DF000BE016B5B7F4FCE01855B9F4F0E949C0DA8
:101E0000CE018B5B9F4F0E943F0EBE01655B7F4FF3
:101E10008FE894E00E94B9068FE894E00E94DC0607
:101E200068E073E080918105909182050E94E00650
:101E300068EC70E080E090E00E947F0C0FE012E020
:101E4000F80165917491CE0101960E94A517CE010B
:101E500001960E9409138091810590918205DC0111
:101E6000ED91FC910084F185E02D09951816190675
:101E7000ECF46091810570918205CE018B5B9F4FE0
:101E80000E94DD12BE016B5B7F4FCE01855B9F4FD1
:101E90000E949C0DCE018B5B9F4F0E943F0EBE01A6
:101EA000655B7F4F8FE894E00E94B9068FE894E06D
:101EB0000E94DC0660ED77E080E090E00E947F0CFD
:101EC00061968EAD9FAD6197892B29F06BE07AE129
:101ED00080E090E004C061E473E080E090E00E9464
:101EE000DC0B6CE073E0CE018B5B9F4F0E94440ED5
:101EF000F6014481558160817181CE018B5B9F4FDA
:101F00000E946E0D811105C0CE018B5B9F4F0E9418
:101F1000D50DBE016B5B7F4FC6010E941F0ECE0127
:101F20008B5B9F4F0E943F0E60E173E080918105C3
:101F3000909182050E94E00668EC70E080E090E0FD
:101F40000E947F0CE1E1F2E065917491CE0101966F
:101F50000E94A517CE0101960E9409138091810568
:101F600090918205DC01ED91FC910084F185E02DDA
:101F7000099518161906ECF4609181057091820597
:101F8000CE018B5B9F4F0E94DD12BE016B5B7F4FCA
:101F9000CE01855B9F4F0E949C0DCE018B5B9F4FB6
:101FA0000E943F0EBE01655B7F4F8FE894E00E9468
:101FB000B9068FE894E00E94DC06B60180918105A5
:101FC000909182050E94560768EC70E080E090E0F6
:101FD0000E947F0CE3E1F2E065917491CE010196DD
:101FE0000E94A517CE0101960E94091380918105D8
:101FF00090918205DC01ED91FC910084F185E02D4A
:10200000099518161906ECF4609181057091820506
:10201000CE018B5B9F4F0E94DD12BE016B5B7F4F39
:10202000CE01855B9F4F0E949C0DCE018B5B9F4F25
:102030000E943F0EBE01655B7F4F8FE894E00E94D7
:10204000B9068FE894E00E94DC0662E173E08091BB
:102050008105909182050E94E00668EC70E080E0C6
:1020600090E00E947F0CE7E1F2E065917491CE016F
:1020700001960E94A517CE0101960E940913809136
:10208000810590918205DC01ED91FC910084F18540
:10209000E02D099518161906ECF4609181057091F0
:1020A0008205CE018B5B9F4F0E94DD12BE016B5BF0
:1020B0007F4FCE01855B9F4F0E949C0DCE018B5BB5
:1020C0009F4F0E943F0EBE01655B7F4F8FE894E0FB
:1020D0000E94B9068FE894E00E94DC066EE173E08E
:1020E00080918105909182050E94E00668EC70E085
:1020F00080E090E00E947F0CE9E1F2E0659174914C
:10210000CE0101960E94A517CE0101960E940913E7
:102110008091810590918205DC01ED91FC91008414
:10212000F185E02D099518161906ECF460918105EA
:1021300070918205CE018B5B9F4F0E94DD12BE0124
:102140006B5B7F4FCE01855B9F4F0E949C0DCE0144
:102150008B5B9F4F0E943F0EBE01655B7F4F8FE8F8
:1021600094E00E94B9068FE894E00E94DC066AE2DF
:1021700073E080918105909182050E94E00668ECF1
:1021800070E080E090E00E947F0CEBE1F2E065916E
:102190007491CE0101960E94A517CE0101960E946E
:1021A00009138091810590918205DC01ED91FC91EC
:1021B0000084F185E02D099518161906ECF460915C
:1021C000810570918205CE018B5B9F4F0E94DD12CD
:1021D000BE016B5B7F4FCE01855B9F4F0E949C0DC4
:1021E000CE018B5B9F4F0E943F0EBE01655B7F4F10
:1021F0008FE894E00E94B9068FE894E00E94DC0624
:10220000EBE0F2E065917491CE0101960E94A51772
:10221000BE016F5F7F4F80918105909182050E9482
:10222000E00668EC70E080E090E00E947F0CEDE159
:10223000F2E065917491CE0101960E94A517CE013E
:1022400001960E9409138091810590918205DC011D
:10225000ED91FC910084F185E02D09951816190681
:10226000ECF46091810570918205CE018B5B9F4FEC
:102270000E94DD12BE016B5B7F4FCE01855B9F4FDD
:102280000E949C0DCE018B5B9F4F0E943F0EBE01B2
:10229000655B7F4F8FE894E00E94B9068FE894E079
:1022A0000E94DC06EDE0F2E065917491CE010196AA
:1022B0000E94A517BE016F5F7F4F809181059091AD
:1022C00082050E94E00668EC70E080E090E00E94E9
:1022D0007F0CEFE1F2E065917491CE0101960E94CE
:1022E000A517CE0101960E94091380918105909156
:1022F0008205DC01ED91FC910084F185E02D0995CA
:1023000018161906ECF46091810570918205CE01D2
:102310008B5B9F4F0E94DD12BE016B5B7F4FCE0136
:10232000855B9F4F0E949C0DCE018B5B9F4F0E944F
:102330003F0EBE01655B7F4F8FE894E00E94B906B7
:102340008FE894E00E94DC066DE273E080918105E5
:10235000909182050E94E00668EC70E080E090E0D9
:102360000E947F0CF70165917491CE0101960E9445
:10237000A517CE0101960E940913809181059091C5
:102380008205DC01ED91FC910084F185E02D099539
:1023900018161906ECF46091810570918205CE0142
:1023A0008B5B9F4F0E94DD12BE016B5B7F4FCE01A6
:1023B000855B9F4F0E949C0DCE018B5B9F4F0E94BF
:1023C0003F0EBE01655B7F4F8FE894E00E94B90627
:1023D0008FE894E00E94DC0668E073E0809181055C
:1023E000909182050E94E00668EC70E080E090E049
:1023F0000E947F0CF80165917491CE0101960E94B4
:10240000A517CE0101960E94091380918105909134
:102410008205DC01ED91FC910084F185E02D0995A8
:1024200018161906ECF46091810570918205CE01B1
:102430008B5B9F4F0E94DD12BE016B5B7F4FCE0115
:10244000855B9F4F0E949C0DCE018B5B9F4F0E942E
:102450003F0EBE01655B7F4F8FE894E00E94B90696
:102460008FE894E00E94DC0661E473E080E090E095
:102470000E94DC0B60ED77E080E090E00E947F0C32
:10248000CE01855B9F4F0E943F0EC05BDF4F0FB6B2
:10249000F894DEBF0FBECDBFDF91CF911F910F919A
:1024A000FF90EF90DF90CF90089590E0FC01E9500D
:1024B000FE4F3491FC01ED51FE4F2491FC01E1539C
:1024C000FE4FE491EE2309F43BC0332339F133305E
:1024D00091F038F43130A9F0323001F584B58F7DB8
:1024E00012C0373091F03830A1F03430B9F4809117
:1024F00080008F7D03C0809180008F778093800063
:102500000DC084B58F7784BD09C08091B0008F77EE
:1025100003C08091B0008F7D8093B000F0E0EE0F9B
:10252000FF1FEB53FE4FA591B4918FB7F894EC9138
:10253000611103C020952E2301C02E2B2C938FBF39
:102540000895CF93DF9390E0FC01ED51FE4F24916D
:10255000FC01E153FE4F8491882361F190E0880FE4
:10256000991FFC01E554FE4FC591D491FC01EB533A
:10257000FE4FA591B491611109C09FB7F89488816D
:10258000209582238883EC912E230BC0623061F466
:102590009FB7F8943881822F809583238883EC91AC
:1025A0002E2B2C939FBF06C08FB7F894E8812E2B5B
:1025B00028838FBFDF91CF910895EF92FF920F9301
:1025C0001F93CF93DF9300D0CDB7DEB78C017B0193
:1025D00062E871E00E94440EC7010E94890697FDDF
:1025E0000EC08A30910559F089831A8241E050E08B
:1025F000BE016F5F7F4FC8010E946E0DEDCFC80115
:102600000F900F90DF91CF911F910F91FF90EF905E
:102610000895BC018FE894E00C94C70688E395E028
:102620000E943F0E8EE395E00E943F0E84E495E009
:102630000E943F0E8AE495E00E940D0A82E791E035
:10264000909387058093860580916F008B7F8093A0
:102650006F0080916F008F7D80936F008091F103F8
:102660008093F203809197038111FCCF80916F00DA
:102670008D7F80936F000895CF93DF93CDB7DEB742
:10268000A3970FB6F894DEBF0FBECDBF789484B584
:10269000826084BD84B5816084BD85B5826085BD5E
:1026A00085B5816085BD80916E00816080936E00EC
:1026B00010928100809181008260809381008091DE
:1026C000810081608093810080918000816080938F
:1026D00080008091B10084608093B1008091B0004F
:1026E00081608093B00080917A00846080937A004A
:1026F00080917A00826080937A0080917A00816074
:1027000080937A0080917A00806880937A0010929A
:10271000C100E0919F04F091A00482E08083E091E9
:102720009B04F0919C041082E0919D04F0919E0422
:1027300087E680831092A704E091A304F091A4049B
:1027400086E08083E091A104F091A2048081806101
:102750008083E091A104F091A2048081886080834D
:10276000E091A104F091A204808180688083E091CF
:10277000A104F091A20480818F7D808384E690E0A3
:10278000A0E0B0E080938A0590938B05A0938C0520
:10279000B0938D056EEE71E0CE0101960E94440E5D
:1027A000BE016F5F7F4F8FE894E00E945607CE0115
:1027B00001960E943F0E8FE894E00E94190266EF96
:1027C00071E0CE0101960E94440EBE016F5F7F4F03
:1027D0008FE894E00E945607CE0101960E943F0EBA
:1027E00061E0809180050E94551268EC70E080E005
:1027F00090E00E947F0C60E0809180050E9455125D
:1028000068EC70E080E090E00E947F0C61E08091D5
:1028100080050E94551268EC70E080E090E00E9414
:102820007F0C60E0809180050E94551268EC70E09A
:1028300080E090E00E947F0C61E0809180050E9422
:10284000551268EC70E080E090E00E947F0C60E040
:10285000809180050E94551268EC70E080E090E065
:102860000E947F0C61E0809180050E94551268EB08
:102870007BE080E090E00E947F0C65E072E0CE019A
:1028800001960E94440EBE016F5F7F4F8FE894E077
:102890000E945607CE0101960E943F0E65E172E04C
:1028A000CE0101960E94440EBE016F5F7F4F8FE8FC
:1028B00094E00E945607CE0101960E943F0E67E207
:1028C00072E0CE0101960E94440ECE0101960E9454
:1028D0009F0ECE0101960E943F0E6FE272E0CE0184
:1028E00001960E94440EBE016F5F7F4F8FE894E017
:1028F0000E945607CE0101960E943F0E60E472E0EE
:10290000CE0101960E94440EBE016F5F7F4F8FE89B
:1029100094E00E945607CE0101960E943F0E68E6A1
:1029200075E08AE495E00E942C0362E575E08AE494
:1029300095E00E942C03109285041092840410925A
:102940008304109282041092810481E080938004B9
:1029500010927F0461E082E10E94551261E083E100
:102960000E9455128091B9008E7F8093B9008091AA
:10297000B9008D7F8093B90088E48093B80085E426
:102980008093BC006CE572E0CE0101960E94440E7B
:10299000BE016F5F7F4F8FE894E00E945607CE0123
:1029A00001960E943F0E6EE672E0CE0101960E94F3
:1029B000440EBE016F5F7F4F8FE894E00E94560780
:1029C000CE0101960E943F0E6CE772E0CE010196A7
:1029D0000E94440EBE016F5F7F4F8FE894E00E941B
:1029E0005607CE0101960E943F0E61E08DE00E94E5
:1029F000A11261E08DE00E94551286E895E00E94E8
:102A00009703181619060CF0A0C166E875E0CE0110
:102A10004E960E94DD12EE8CFF8CE114F104E1F180
:102A20000AA11BA101151105B9F1570165018FEF2D
:102A3000A81AB80AF6018081082E000C990B0E9492
:102A4000DB17892B99F7015011090E0D1F1DF80195
:102A50008081082E000C990B0E94DB17892B79F4DA
:102A6000A8014F5F5F4F4C195D095BA34AA3EC14AB
:102A7000FD0458F4B601C7010E94E81B06C00C15FE
:102A80001D0570F301501109E2CFEE8DFF8D8AA173
:102A90009BA1E80FF91F1082BE01625E7F4FCE013D
:102AA00042960E94360E6BE972E0CE0148960E9473
:102AB000440E4E895F896A897B89CE0148960E94BF
:102AC0006E0D811104C0CE0148960E94D50DBE0145
:102AD000685E7F4FCE0101960E94360EBE016F5F89
:102AE0007F4F8FE894E00E945607CE0101960E9426
:102AF0003F0ECE0148960E943F0ECE0142960E94A4
:102B00003F0E8FE894E00E94190260E070E0CE0171
:102B10004E960E945D0D873509F0F5C061E070E0CA
:102B2000CE014E960E945D0D863509F0ECC06CE238
:102B3000CE014E960E940F0D2AA13BA121503109D2
:102B4000AC014F5F5F4FBE01625E7F4FCE010196C9
:102B50000E94590EBE016F5F7F4F8EE395E00E9489
:102B60009C0DCE0101960E943F0E62E871E084E464
:102B700095E00E94080E63EE72E0CE0101960E947D
:102B8000440EBE016F5F7F4F8FE894E00E945607AE
:102B9000CE0101960E943F0E80914205909143051F
:102BA0001B8A1A8A1D8A1C8A1F8A1E8A4AE0BE0155
:102BB0006F5F7F4F0E94C117BE016F5F7F4FCE01D5
:102BC00042960E94080EBE016E5E7F4F8FE894E031
:102BD0000E945607CE0142960E943F0E6EE375E0BA
:102BE000CE0101960E94360EBE016F5F7F4F8FE8C7
:102BF00094E00E945607CE0101960E943F0E8FE896
:102C000094E00E941902E12CF12C809142059091F0
:102C10004305E816F90608F049C0B7016F5F7F4F1A
:102C20008EE395E00E945D0D082FB7018EE395E0DD
:102C30000E945D0D182F8FEB810F863010F4182F36
:102C400004C010531A3008F01FEF8FEB800F86304E
:102C500010F4082FAAC000530A3008F4A6C01FEFD2
:102C600064E475E0CE0101960E94360E1A8B1B8A31
:102C700041E050E0BE016E5E7F4FCE0101960E94A2
:102C80006E0D811104C0CE0101960E94D50DBE01CA
:102C90006F5F7F4F84E495E00E941F0ECE01019686
:102CA0000E943F0E82E0E80EF11CAFCF63EB72E0B2
:102CB000CE0101960E94440EBE016F5F7F4F8FE8E8
:102CC00094E00E945607CE0101960E943F0E64E4F4
:102CD00075E0CE0101960E94360EBE016F5F7F4FF8
:102CE0008FE894E00E945607CE0101960E943F0EA5
:102CF0008FE894E00E94190264E475E08AE495E0AC
:102D00000E9468071EC02AA13BA180913C059091BA
:102D10003D0528173907A9F48E8D9F8D60913805E0
:102D2000709139050097C1F461157105C9F0232B25
:102D300011F1FB01808190E0919581959109892B9A
:102D4000D1F0CE014E960E943F0E8AE495E00E949B
:102D5000FC020E943B0251CE6115710549F4E4CF9B
:102D6000009749F0232B39F0FC01808190E0E7CFF8
:102D70000E94FC1BE4CF61ED72E0CE0101960E943F
:102D8000440EBE016F5F7F4F8FE894E00E945607AC
:102D9000CE0101960E943F0E8FE894E00E94190236
:102DA0008AE495E00E943609CCCF1F3F09F458CF42
:102DB000F0E11F9F000D1124102F52CFEF920F93BF
:102DC0001F93CF93DF93EFE8F4E01382128288EE33
:102DD00093E0A0E0B0E084839583A683B7832AE0E4
:102DE00031E03183208325EC30E03587248724ECE3
:102DF00030E03787268720EC30E0318B208B21ECC8
:102E000030E0338B228B22EC30E0358B248B26ECA8
:102E100030E0378B268B118E128E138E148EECE2DF
:102E2000F5E01382128284839583A683B7832CE115
:102E300031E031832083C6E8D5E01B821A828C837F
:102E40009D83AE83BF8382E791E099838883E3E823
:102E5000F5E08AE691E09183808312820EE715E027
:102E600082E691E0F8019183808382E0828361E0D1
:102E70000E94A11261E082E00E945512F801D48301
:102E8000C383EE24E39403E815E020E144E065E029
:102E900088E695E00E94210A83E0E82E21E147E0E0
:102EA00066E082E595E00E94210ACAE4D5E08CE460
:102EB00091E09983888384E090E00E94EC199B83E1
:102EC0008A8382E090E09D838C831F821E8262E869
:102ED00071E084E495E00E94440E62E871E08EE3C4
:102EE00095E00E94440E62E373E088E395E0DF9191
:102EF000CF911F910F91EF900C94440E1F93FC0102
:102F000099278827BC01E89411911032E9F3193010
:102F100010F01E30C8F31B3251F01D3249F4689492
:102F200006C00E94AC17610F711D811D911D11918A
:102F300010531A30B0F33EF49095809570956195DA
:102F40007F4F8F4F9F4F1F910895FB01DC0105902C
:102F50000D920020E1F70895592F482F372F262F83
:102F6000660F771F881F991F660F771F881F991F8D
:102F7000620F731F841F951F660F771F881F991F8D
:102F80000895BB27FB015527AA27880F991FAA1F61
:102F9000A41710F0A41B83955051B9F7A05DAA3374
:102FA00008F0A95DA193009779F7B111B19311923F
:102FB000CB010C94E41791110C949E18803219F0F7
:102FC00089508550C8F70895DC01FC01672F719185
:102FD0007723E1F7329704C07C916D9370836291FF
:102FE000AE17BF07C8F30895E89409C097FB3EF4F5
:102FF00090958095709561957F4F8F4F9F4F992346
:10300000A9F0F92F96E9BB279395F69587957795C3
:103010006795B795F111F8CFFAF4BB0F11F460FF83
:103020001BC06F5F7F4F8F4F9F4F16C0882311F0DB
:1030300096E911C0772321F09EE8872F762F05C0EF
:10304000662371F096E8862F70E060E02AF09A958A
:10305000660F771F881FDAF7880F9695879597F97F
:1030600008950E9444180C94B8180E94AA1838F0C9
:103070000E94B11820F0952311F00C94A1180C9423
:10308000A71811240C94EC180E94C91870F3959F8E
:10309000C1F3950F50E0551F629FF001729FBB274F
:1030A000F00DB11D639FAA27F00DB11DAA1F649FEB
:1030B0006627B00DA11D661F829F2227B00DA11D9E
:1030C000621F739FB00DA11D621F839FA00D611D24
:1030D000221F749F3327A00D611D231F849F600D45
:1030E000211D822F762F6A2F11249F5750409AF06E
:1030F000F1F088234AF0EE0FFF1FBB1F661F771FFA
:10310000881F91505040A9F79E3F510580F00C94C4
:10311000A1180C94EC185F3FE4F3983ED4F3869525
:1031200077956795B795F795E7959F5FC1F7FE2B64
:10313000880F911D9695879597F908959927882767
:10314000089597F99F6780E870E060E008959FEF29
:1031500080EC089500240A9416161706180609062E
:10316000089500240A9412161306140605060895FD
:10317000092E0394000C11F4882352F0BB0F40F485
:10318000BF2B11F460FF04C06F5F7F4F8F4F9F4FC5
:10319000089557FD9058440F551F59F05F3F71F047
:1031A0004795880F97FB991F61F09F3F79F08795AE
:1031B0000895121613061406551FF2CF4695F1DF37
:1031C00008C0161617061806991FF1CF86957105C7
:1031D000610508940895E894BB2766277727CB01FB
:1031E00097F908950E943419A59F900DB49F900DF2
:1031F000A49F800D911D112408952F923F924F920C
:103200005F926F927F928F929F92AF92BF92CF9276
:10321000DF92EF92FF920F931F93CF93DF93CDB77F
:10322000DEB7CA1BDB0B0FB6F894DEBF0FBECDBFF7
:1032300009942A88398848885F846E847D848C84C8
:103240009B84AA84B984C884DF80EE80FD800C81D1
:103250001B81AA81B981CE0FD11D0FB6F894DEBFB4
:103260000FBECDBFED010895A29FB001B39FC00175
:10327000A39F700D811D1124911DB29F700D811DA2
:103280001124911D08955058BB27AA270E945B194D
:103290000C94B8180E94AA1838F00E94B11820F0B7
:1032A00039F49F3F19F426F40C94A7180EF4E09516
:1032B000E7FB0C94A118E92F0E94C91858F3BA171C
:1032C000620773078407950720F079F4A6F50C943C
:1032D000EB180EF4E0950B2EBA2FA02D0B01B901BF
:1032E00090010C01CA01A0011124FF27591B99F07C
:1032F000593F50F4503E68F11A16F040A22F232F88
:10330000342F4427585FF3CF469537952795A795D7
:10331000F0405395C9F77EF41F16BA0B620B730B7E
:10332000840BBAF09150A1F0FF0FBB1F661F771FEF
:10333000881FC2F70EC0BA0F621F731F841F48F4A4
:10334000879577956795B795F7959E3F08F0B0CF2D
:103350009395880F08F09927EE0F97958795089514
:103360000E94B7196894B1110C94EC1808950E944A
:10337000D11888F09F5798F0B92F9927B751B0F01E
:10338000E1F0660F771F881F991F1AF0BA95C9F7E9
:1033900014C0B13091F00E94EB18B1E008950C9484
:1033A000EB18672F782F8827B85F39F0B93FCCF337
:1033B000869577956795B395D9F73EF49095809566
:1033C000709561957F4F8F4F9F4F0895EE0FFF1FB0
:1033D0000590F491E02D0994CF93DF93823091050D
:1033E00010F482E090E0E0919405F091950520E0E2
:1033F00030E0C0E0D0E0309711F1408151814817B2
:103400005907C0F04817590761F4828193812097CA
:1034100019F09B838A832BC0909395058093940524
:1034200026C02115310519F04217530718F49A01E7
:10343000BE01DF01EF010280F381E02DDCCF211519
:10344000310509F1281B390B2430310590F412960F
:103450008D919C9113976115710521F0FB01938368
:10346000828304C09093950580939405FD01329664
:1034700044C0FD01E20FF31F819391932250310963
:103480002D933C933AC02091920530919305232BC4
:1034900041F4209102013091030130939305209370
:1034A000920520910001309101012115310541F46F
:1034B0002DB73EB74091040150910501241B350BF7
:1034C000E0919205F0919305E217F307A0F42E1B0B
:1034D0003F0B2817390778F0AC014E5F5F4F241778
:1034E000350748F04E0F5F1F5093930540939205A8
:1034F0008193919302C0E0E0F0E0CF01DF91CF91A2
:1035000008950F931F93CF93DF93009709F48CC016
:10351000FC01329713821282009194051091950557
:103520000115110581F420813181820F931F2091B3
:103530009205309193052817390779F5F093930593
:10354000E093920571C0D80140E050E0AE17BF078C
:1035500050F412962D913C911397AD012115310530
:1035600009F1D901F3CF9D01DA0133832283608110
:103570007181860F971F8217930769F4EC012881E8
:103580003981260F371F2E5F3F4F318320838A8179
:103590009B8193838283452B29F4F0939505E093D7
:1035A000940542C01396FC93EE931297ED01499156
:1035B00059919E01240F351FE217F30771F48081A2
:1035C0009181840F951F029611969C938E93828110
:1035D000938113969C938E931297E0E0F0E0D801CC
:1035E00012968D919C911397009719F0F8018C0118
:1035F000F6CF8D919C9198012E5F3F4F820F931FC4
:1036000020919205309193052817390769F4309776
:1036100029F4109295051092940502C0138212822B
:103620001093930500939205DF91CF911F910F9115
:103630000895A0E0B0E0EFE1FBE10C940119EC018A
:10364000009721F4CB010E94EC19B8C0FC01E60FF1
:10365000F71F9C0122503109E217F30708F4ACC0B0
:10366000D9010D911C91119706171707B0F005307D
:10367000110508F49FC0C80104978617970708F43E
:1036800099C002501109061B170B019311936D93FA
:103690007C93CF010E94811A8DC05B01A01AB10AF0
:1036A0004C01800E911EA0919405B091950540E0CB
:1036B00050E0E12CF12C109709F44AC0A815B90587
:1036C000D1F56D907C901197630182E0C80ED11CFA
:1036D000CA14DB0480F1A3014A195B096A0182E084
:1036E000C80ED11C1296BC9012971396AC91B5E0FF
:1036F000CB16D10440F0B282A38351834083D90119
:103700006D937C930AC00E5F1F4FC301800F911F02
:10371000F90191838083EB2DFA2FE114F10431F04C
:10372000D7011396FC93EE93129744C0F09395053E
:10373000E09394053FC08D919C91119748175907CC
:1037400008F4AC017D0112960D90BC91A02DB3CF71
:10375000809192059091930588159905E1F446179B
:103760005707C8F48091000190910101009741F43E
:103770008DB79EB74091040150910501841B950BB4
:10378000E817F907C8F4F0939305E0939205F9015F
:10379000718360830FC0CB010E94EC197C010097FC
:1037A00059F0A801BE010E94E81BCE010E94811AB7
:1037B000C70104C0CE0102C080E090E0CDB7DEB703
:1037C000EEE00C941D1981E090E0F8940C94171C25
:1037D000FB01DC0102C001900D9241505040D8F72E
:1037E0000895FC018191861721F08823D9F7992744
:1037F00008953197CF010895FB01DC018D9101906F
:1038000080190110D9F3990B0895FB01DC01019097
:103810000D920020E1F70895FC0181E090E0019015
:10382000061609F4CF010020D1F70197089511E0A1
:10383000C3E1D1E004C0FE010E94E6192196C43123
:08384000D107C9F7F894FFCF8E
:1038480000009605800000000000D2013F016A01D7
:1038580019029B0179018D0100000000CD029D0233
:10386800C004450263025402460200000000200A18
:103878000C05530666069403770490038C038803AB
:10388800EE0465034203C304000000000D0A160A93
:103898002C036807FC025D091005A705F206000065
:1038A800000035090A0500000000300C0E05000074
:1038B8000000D0033F01C004CB039703B503A60360
:1038C8000D0A006E6F7420696E2069662045525299
:1038D8004F523A20656E64496E6465783E73746130
:1038E8007274496E64657820262620656E64496E78
:1038F8006465783E3D3020262620207374617274FA
:10390800496E6465783E3D3000556E6B6E6F776E1C
:1039180020636F6D6D616E643A2000436F6D6D6159
:103928006E64203D206E756C6C2121213A000A538B
:10393800455455503A000942543A2052455345548B
:1039480054494E47000942543A20524553455420A1
:10395800444F4E45000942543A20494E4954494182
:103968004C495A494E4700454D533134594D000989
:1039780042543A20494E495449414C495A45440019
:1039880009454D533A20494E495449414C495A49F1
:103998004E47204348414E4E454C530009454D5330
:1039A8003A20494E495449414C495A454400094531
:1039B8004D533A20535441525445440053455455AD
:1039C8005020444F4E4520284C4544203133205741
:1039D800494C4C204245204F4E29000942543A2078
:1039E8007265636569766564206D65737361676583
:1039F8003A200009454D535F434D443A20436F6ECA
:103A080076657274656420636F6D6D616E643A20CB
:103A1800000942543A20446973636F6E6E6563749B
:103A280065640009454D535F434D443A204E6F7419
:103A3800696669636174696F6E206C656E67746826
:103A48003A200053422C3000522C3100534E2C00A7
:103A5800560053522C32303030303030300053530F
:103A68002C433030303030303100505A0053422C23
:103A78003200436F6E6E656374696F6E20456E64C5
:023A880000003C
:00000001FF
